{
  "contractName": "ComplexStorage",
  "abi": [
    {
      "constant": true,
      "inputs": [],
      "name": "owner",
      "outputs": [
        {
          "name": "",
          "type": "address"
        }
      ],
      "payable": false,
      "stateMutability": "view",
      "type": "function"
    },
    {
      "constant": true,
      "inputs": [],
      "name": "numReports",
      "outputs": [
        {
          "name": "",
          "type": "uint256"
        }
      ],
      "payable": false,
      "stateMutability": "view",
      "type": "function"
    },
    {
      "constant": true,
      "inputs": [
        {
          "name": "",
          "type": "uint256"
        }
      ],
      "name": "reports",
      "outputs": [
        {
          "name": "reportHash",
          "type": "bytes32"
        },
        {
          "name": "reportTimestamp",
          "type": "uint32"
        },
        {
          "name": "lat",
          "type": "uint8"
        },
        {
          "name": "lng",
          "type": "uint8"
        }
      ],
      "payable": false,
      "stateMutability": "view",
      "type": "function"
    },
    {
      "constant": false,
      "inputs": [
        {
          "name": "newOwner",
          "type": "address"
        }
      ],
      "name": "transferOwnership",
      "outputs": [],
      "payable": false,
      "stateMutability": "nonpayable",
      "type": "function"
    },
    {
      "inputs": [],
      "payable": false,
      "stateMutability": "nonpayable",
      "type": "constructor"
    },
    {
      "payable": true,
      "stateMutability": "payable",
      "type": "fallback"
    },
    {
      "anonymous": false,
      "inputs": [
        {
          "indexed": false,
          "name": "_reportHash",
          "type": "bytes32"
        },
        {
          "indexed": false,
          "name": "_reportTimestamp",
          "type": "uint32"
        }
      ],
      "name": "ReportMade",
      "type": "event"
    },
    {
      "anonymous": false,
      "inputs": [
        {
          "indexed": false,
          "name": "_reportHash",
          "type": "bytes32"
        },
        {
          "indexed": false,
          "name": "_sender",
          "type": "address"
        }
      ],
      "name": "ReportRequested",
      "type": "event"
    },
    {
      "constant": false,
      "inputs": [
        {
          "name": "report",
          "type": "string"
        },
        {
          "name": "timestamp",
          "type": "uint32"
        },
        {
          "name": "latitude",
          "type": "uint8"
        },
        {
          "name": "longitude",
          "type": "uint8"
        },
        {
          "name": "_signedMessage",
          "type": "bytes"
        }
      ],
      "name": "makeReport",
      "outputs": [
        {
          "name": "",
          "type": "bool"
        }
      ],
      "payable": false,
      "stateMutability": "nonpayable",
      "type": "function"
    },
    {
      "constant": true,
      "inputs": [
        {
          "name": "index",
          "type": "uint256"
        }
      ],
      "name": "queryReportHash",
      "outputs": [
        {
          "name": "",
          "type": "bytes32"
        }
      ],
      "payable": false,
      "stateMutability": "view",
      "type": "function"
    },
    {
      "constant": true,
      "inputs": [],
      "name": "queryLastReportHash",
      "outputs": [
        {
          "name": "",
          "type": "bytes32"
        }
      ],
      "payable": false,
      "stateMutability": "view",
      "type": "function"
    },
    {
      "constant": true,
      "inputs": [
        {
          "name": "index",
          "type": "uint256"
        }
      ],
      "name": "queryReportLat",
      "outputs": [
        {
          "name": "",
          "type": "uint8"
        }
      ],
      "payable": false,
      "stateMutability": "view",
      "type": "function"
    },
    {
      "constant": true,
      "inputs": [],
      "name": "queryLastReportLat",
      "outputs": [
        {
          "name": "",
          "type": "uint8"
        }
      ],
      "payable": false,
      "stateMutability": "view",
      "type": "function"
    },
    {
      "constant": true,
      "inputs": [
        {
          "name": "index",
          "type": "uint256"
        }
      ],
      "name": "queryReportLng",
      "outputs": [
        {
          "name": "",
          "type": "uint8"
        }
      ],
      "payable": false,
      "stateMutability": "view",
      "type": "function"
    },
    {
      "constant": true,
      "inputs": [],
      "name": "queryLastReportLng",
      "outputs": [
        {
          "name": "",
          "type": "uint8"
        }
      ],
      "payable": false,
      "stateMutability": "view",
      "type": "function"
    },
    {
      "constant": true,
      "inputs": [
        {
          "name": "index",
          "type": "uint256"
        }
      ],
      "name": "queryReportTimestamp",
      "outputs": [
        {
          "name": "",
          "type": "uint32"
        }
      ],
      "payable": false,
      "stateMutability": "view",
      "type": "function"
    },
    {
      "constant": true,
      "inputs": [],
      "name": "queryLastReportTimestamp",
      "outputs": [
        {
          "name": "",
          "type": "uint32"
        }
      ],
      "payable": false,
      "stateMutability": "view",
      "type": "function"
    },
    {
      "constant": true,
      "inputs": [],
      "name": "getNumReports",
      "outputs": [
        {
          "name": "",
          "type": "uint256"
        }
      ],
      "payable": false,
      "stateMutability": "view",
      "type": "function"
    }
  ],
  "bytecode": "0x608060405234801561001057600080fd5b5060008054600160a060020a0319163317815560015561093f806100356000396000f3006080604052600436106100cf5763ffffffff7c0100000000000000000000000000000000000000000000000000000000600035041663169eb1db81146100d157806342ff97b01461010257806344a7bfaf146101305780636db8fd041461014557806370297c981461016c5780637ddc031c146101815780638da5cb5b14610199578063a13a750d146101d7578063a24ede26146101ef578063ae30c5c614610204578063bdc22d0814610219578063c942adf7146102e1578063ec3c9db914610327578063f2fde38b1461033c575b005b3480156100dd57600080fd5b506100e960043561036a565b6040805163ffffffff9092168252519081900360200190f35b34801561010e57600080fd5b5061011a6004356103d3565b6040805160ff9092168252519081900360200190f35b34801561013c57600080fd5b5061011a610442565b34801561015157600080fd5b5061015a6104a1565b60408051918252519081900360200190f35b34801561017857600080fd5b5061011a6104f3565b34801561018d57600080fd5b5061011a600435610553565b3480156101a557600080fd5b506101ae6105c1565b6040805173ffffffffffffffffffffffffffffffffffffffff9092168252519081900360200190f35b3480156101e357600080fd5b5061015a6004356105dd565b3480156101fb57600080fd5b5061015a61063d565b34801561021057600080fd5b506100e9610643565b34801561022557600080fd5b506040805160206004803580820135601f81018490048402850184019095528484526102cd94369492936024939284019190819084018382808284375050604080516020601f60608a01358b0180359182018390048302840183018552818452989b63ffffffff8b35169b60ff848d013581169c96870135169a91995097506080909401955091935091820191819084018382808284375094975061069d9650505050505050565b604080519115158252519081900360200190f35b3480156102ed57600080fd5b506102f9600435610833565b6040805194855263ffffffff909316602085015260ff91821684840152166060830152519081900360800190f35b34801561033357600080fd5b5061015a61086b565b34801561034857600080fd5b506100cf73ffffffffffffffffffffffffffffffffffffffff60043516610871565b60015460009082111561037c57600080fd5b600082815260026020908152604091829020548251908152339181019190915281516000805160206108f4833981519152929181900390910190a15060009081526002602052604090206001015463ffffffff1690565b6001546000908211156103e557600080fd5b600082815260026020908152604091829020548251908152339181019190915281516000805160206108f4833981519152929181900390910190a15060009081526002602052604090206001015465010000000000900460ff1690565b6001546000908152600260209081526040808320548151908152339281019290925280516000805160206108f48339815191529281900390910190a1506001805460009081526002602052604090200154640100000000900460ff1690565b6001546000908152600260209081526040808320548151908152339281019290925280516000805160206108f48339815191529281900390910190a15060015460009081526002602052604090205490565b6001546000908152600260209081526040808320548151908152339281019290925280516000805160206108f48339815191529281900390910190a150600180546000908152600260205260409020015465010000000000900460ff1690565b60015460009082111561056557600080fd5b600082815260026020908152604091829020548251908152339181019190915281516000805160206108f4833981519152929181900390910190a150600090815260026020526040902060010154640100000000900460ff1690565b60005473ffffffffffffffffffffffffffffffffffffffff1681565b6001546000908211156105ef57600080fd5b600082815260026020908152604091829020548251908152339181019190915281516000805160206108f4833981519152929181900390910190a15060009081526002602052604090205490565b60015481565b6001546000908152600260209081526040808320548151908152339281019290925280516000805160206108f48339815191529281900390910190a150600180546000908152600260205260409020015463ffffffff1690565b6000805473ffffffffffffffffffffffffffffffffffffffff1633146106c257600080fd5b600180548101905560405186516002918891819060208401908083835b602083106106fe5780518252601f1990920191602091820191016106df565b51815160209384036101000a600019018019909216911617905260405191909301945091925050808303816000865af115801561073f573d6000803e3d6000fd5b5050506040513d602081101561075457600080fd5b505160018054600090815260026020908152604080832094909455825482528382208301805463ffffffff808c1663ffffffff1990921691909117909155835483528483208401805460ff808c166401000000000264ff0000000019909216919091179091558454845285842085018054918a16650100000000000265ff0000000000199092169190911790558354835291849020805493015484519384529091169082015281517f731b8f9b6112f06847e532cc3cc850f2f87b09e924fad7b781f5919021dcf136929181900390910190a150600195945050505050565b6002602052600090815260409020805460019091015463ffffffff81169060ff64010000000082048116916501000000000090041684565b60015490565b60005473ffffffffffffffffffffffffffffffffffffffff16331461089557600080fd5b73ffffffffffffffffffffffffffffffffffffffff811615156108b757600080fd5b6000805473ffffffffffffffffffffffffffffffffffffffff191673ffffffffffffffffffffffffffffffffffffffff9290921691909117905556002fad3916d17402903d14c1818fbd73cb009321e307b178b606f3f1671e75ece8a165627a7a723058209ce0593211c1b3b4d7b13e977340c81caedd52f03c786020709d9d9344820f2e0029",
  "source": "pragma solidity ^0.4.18;\nimport \"./ECRecovery.sol\";\n\ncontract Ownable {\n\n  address public owner;\n\n  /**\n   * @dev The Ownable constructor sets the original `owner` of the contract to the sender\n   * account.\n   */\n  constructor() {\n    owner = msg.sender;\n  }\n\n  /**\n   * @dev Throws if called by any account other than the owner.\n   */\n  modifier onlyOwner() {\n    require(msg.sender == owner);\n    _;\n  }\n\n  /**\n   * @dev Allows the current owner to transfer control of the contract to a newOwner.\n   * @param newOwner The address to transfer ownership to.\n   */\n  function transferOwnership(address newOwner) onlyOwner {\n    require(newOwner != address(0));\n    owner = newOwner;\n  }\n\n}\n\ncontract ComplexStorage is Ownable {\n\n\t//state variables\n\tuint public numReports; //total number of reports hashed\n\tmapping (uint => Report) public reports; //hash of report is id --> report struct\n\tstruct Report {\n\t\tbytes32 reportHash;\n\t\tuint32 reportTimestamp;\n\t\tuint8 lat;\n\t\tuint8 lng;\n\t}\n\n\t//constructor\n\tconstructor() {\n\t\t//set numReports\n\t\tnumReports = 0;\n\t}\n\n\t//events\n\tevent ReportMade (bytes32 _reportHash, uint32 _reportTimestamp);\n\tevent ReportRequested (bytes32 _reportHash, address _sender);\n\n\t//functions\n\t\t//make a report (only by owner, which makes sense because all api calls will use owner address)\n\t\tfunction makeReport(string report, uint32 timestamp, uint8 latitude, uint8 longitude, bytes _signedMessage) public onlyOwner returns (bool) {\n\t\t\t//incrementing Account\n\t\t\tnumReports += 1;\n\t\t\t//adding new report to reports\n\t\t\treports[numReports].reportHash = sha256(report); //should be hashed before entering mapping?\n\t\t\treports[numReports].reportTimestamp = timestamp;\n\t\t\treports[numReports].lat = latitude;\n\t\t\treports[numReports].lng = longitude;\n\t\t\t//emit event\n\t\t\tReportMade(reports[numReports].reportHash, reports[numReports].reportTimestamp);\n\t\t\treturn true;\n\t\t}\n\t\t//query for report hash\n\t\tfunction queryReportHash(uint index) view public returns (bytes32) {\n      //require\n      require(index <= numReports);\n      //emit event\n\t\t\tReportRequested(reports[index].reportHash, msg.sender);\n      //return\n\t\t\treturn reports[index].reportHash;\n\t\t}\n\n    function queryLastReportHash() view public returns (bytes32) {\n      //emit event\n\t\t\tReportRequested(reports[numReports].reportHash, msg.sender);\n      //return\n\t\t\treturn reports[numReports].reportHash;\n\t\t}\n\n\t\t//query for a report lat\n\t\tfunction queryReportLat(uint index) view public returns (uint8) {\n      //require\n      require(index <= numReports);\n      //emit event\n\t\t\tReportRequested(reports[index].reportHash, msg.sender);\n\t\t\t//return\n\t\t\treturn reports[index].lat;\n\t\t}\n\n    function queryLastReportLat() view public returns (uint8) {\n      //emit event\n\t\t\tReportRequested(reports[numReports].reportHash, msg.sender);\n\t\t\t//return\n\t\t\treturn reports[numReports].lat;\n\t\t}\n\n\n\t\t//query for a report lng\n\t\tfunction queryReportLng(uint index) view public returns (uint8) {\n      //require\n      require(index <= numReports);\n      //emit event\n\t\t\tReportRequested(reports[index].reportHash, msg.sender);\n\t\t\t//return\n\t\t\treturn reports[index].lng;\n\t\t}\n\n    function queryLastReportLng() view public returns (uint8) {\n      //emit event\n\t\t\tReportRequested(reports[numReports].reportHash, msg.sender);\n\t\t\t//return\n\t\t\treturn reports[numReports].lng;\n\t\t}\n\n\t\t//query for a report timestamp\n\t\tfunction queryReportTimestamp(uint index) view public returns (uint32) {\n      //require\n      require(index <= numReports);\n      //emit event\n\t\t\tReportRequested(reports[index].reportHash, msg.sender);\n\t\t\t//return\n\t\t\treturn reports[index].reportTimestamp;\n\t\t}\n\n    function queryLastReportTimestamp() view public returns (uint32) {\n      //emit event\n\t\t\tReportRequested(reports[numReports].reportHash, msg.sender);\n\t\t\t//return\n\t\t\treturn reports[numReports].reportTimestamp;\n\t\t}\n\n\n\t\t//query for number of reports\n\t\tfunction getNumReports() view public returns (uint) {\n\t\t\t\t//return\n\t\t\t return numReports;\n\t\t}\n\n\t//fallback\n\tfunction() payable { }\n}\n",
  "sourcePath": "/Users/courtneypowerstoneman/Documents/Luke2/ConsensysDeveloperProgram/Final/HouseSale/contracts/ComplexStorage.sol",
  "compiler": {
    "name": "solc",
    "version": "0.4.24+commit.e67f0147.Emscripten.clang"
  },
  "schemaVersion": "2.0.1",
  "updatedAt": "2018-08-19T17:04:13.948Z"
}