{
  "contractName": "HouseSale",
  "abi": [
    {
      "constant": false,
      "inputs": [],
      "name": "unpause",
      "outputs": [],
      "payable": false,
      "stateMutability": "nonpayable",
      "type": "function"
    },
    {
      "constant": true,
      "inputs": [],
      "name": "paused",
      "outputs": [
        {
          "name": "",
          "type": "bool"
        }
      ],
      "payable": false,
      "stateMutability": "view",
      "type": "function"
    },
    {
      "constant": false,
      "inputs": [],
      "name": "renounceOwnership",
      "outputs": [],
      "payable": false,
      "stateMutability": "nonpayable",
      "type": "function"
    },
    {
      "constant": false,
      "inputs": [],
      "name": "pause",
      "outputs": [],
      "payable": false,
      "stateMutability": "nonpayable",
      "type": "function"
    },
    {
      "constant": true,
      "inputs": [
        {
          "name": "",
          "type": "uint256"
        }
      ],
      "name": "offers",
      "outputs": [
        {
          "name": "houseId",
          "type": "uint256"
        },
        {
          "name": "offerPrice",
          "type": "uint256"
        },
        {
          "name": "daysUntilClosingOffer",
          "type": "uint256"
        },
        {
          "name": "id",
          "type": "uint256"
        },
        {
          "name": "depositFee",
          "type": "uint256"
        },
        {
          "name": "closingDate",
          "type": "uint256"
        },
        {
          "name": "remainingFunds",
          "type": "uint256"
        },
        {
          "name": "buyer",
          "type": "address"
        },
        {
          "name": "seller",
          "type": "address"
        },
        {
          "name": "offerState",
          "type": "uint8"
        }
      ],
      "payable": false,
      "stateMutability": "view",
      "type": "function"
    },
    {
      "constant": true,
      "inputs": [],
      "name": "owner",
      "outputs": [
        {
          "name": "",
          "type": "address"
        }
      ],
      "payable": false,
      "stateMutability": "view",
      "type": "function"
    },
    {
      "constant": true,
      "inputs": [
        {
          "name": "",
          "type": "uint256"
        }
      ],
      "name": "houses",
      "outputs": [
        {
          "name": "homeAddress",
          "type": "string"
        },
        {
          "name": "id",
          "type": "uint256"
        },
        {
          "name": "salePrice",
          "type": "uint256"
        },
        {
          "name": "offerId",
          "type": "uint256"
        },
        {
          "name": "depositFee",
          "type": "uint256"
        },
        {
          "name": "daysUntilClosing",
          "type": "uint256"
        },
        {
          "name": "remainingFunds",
          "type": "uint256"
        },
        {
          "name": "closingDate",
          "type": "uint256"
        },
        {
          "name": "numberOfOffers",
          "type": "uint256"
        },
        {
          "name": "numberOfPulledOffers",
          "type": "uint256"
        },
        {
          "name": "buyer",
          "type": "address"
        },
        {
          "name": "seller",
          "type": "address"
        },
        {
          "name": "state",
          "type": "uint8"
        }
      ],
      "payable": false,
      "stateMutability": "view",
      "type": "function"
    },
    {
      "constant": false,
      "inputs": [
        {
          "name": "_newOwner",
          "type": "address"
        }
      ],
      "name": "transferOwnership",
      "outputs": [],
      "payable": false,
      "stateMutability": "nonpayable",
      "type": "function"
    },
    {
      "anonymous": false,
      "inputs": [],
      "name": "Pause",
      "type": "event"
    },
    {
      "anonymous": false,
      "inputs": [],
      "name": "Unpause",
      "type": "event"
    },
    {
      "anonymous": false,
      "inputs": [
        {
          "indexed": true,
          "name": "previousOwner",
          "type": "address"
        }
      ],
      "name": "OwnershipRenounced",
      "type": "event"
    },
    {
      "anonymous": false,
      "inputs": [
        {
          "indexed": true,
          "name": "previousOwner",
          "type": "address"
        },
        {
          "indexed": true,
          "name": "newOwner",
          "type": "address"
        }
      ],
      "name": "OwnershipTransferred",
      "type": "event"
    },
    {
      "constant": false,
      "inputs": [
        {
          "name": "_address",
          "type": "string"
        },
        {
          "name": "_price",
          "type": "uint256"
        }
      ],
      "name": "addHouseForSale",
      "outputs": [],
      "payable": false,
      "stateMutability": "nonpayable",
      "type": "function"
    },
    {
      "constant": false,
      "inputs": [
        {
          "name": "_houseId",
          "type": "uint256"
        }
      ],
      "name": "takeDownHouse",
      "outputs": [],
      "payable": false,
      "stateMutability": "nonpayable",
      "type": "function"
    },
    {
      "constant": false,
      "inputs": [
        {
          "name": "_houseId",
          "type": "uint256"
        },
        {
          "name": "_offer",
          "type": "uint256"
        },
        {
          "name": "_daysUntilClosing",
          "type": "uint256"
        }
      ],
      "name": "makeOffer",
      "outputs": [],
      "payable": true,
      "stateMutability": "payable",
      "type": "function"
    },
    {
      "constant": false,
      "inputs": [
        {
          "name": "_offerId",
          "type": "uint256"
        }
      ],
      "name": "pullOffer",
      "outputs": [],
      "payable": false,
      "stateMutability": "nonpayable",
      "type": "function"
    },
    {
      "constant": false,
      "inputs": [
        {
          "name": "_houseId",
          "type": "uint256"
        },
        {
          "name": "_offerId",
          "type": "uint256"
        }
      ],
      "name": "acceptOffer",
      "outputs": [],
      "payable": false,
      "stateMutability": "nonpayable",
      "type": "function"
    },
    {
      "constant": false,
      "inputs": [
        {
          "name": "_houseId",
          "type": "uint256"
        }
      ],
      "name": "submitRemainingFunds",
      "outputs": [],
      "payable": true,
      "stateMutability": "payable",
      "type": "function"
    },
    {
      "constant": false,
      "inputs": [
        {
          "name": "_houseId",
          "type": "uint256"
        }
      ],
      "name": "closeDeal",
      "outputs": [],
      "payable": false,
      "stateMutability": "nonpayable",
      "type": "function"
    },
    {
      "constant": true,
      "inputs": [],
      "name": "getHousesForSale",
      "outputs": [
        {
          "name": "",
          "type": "uint256[]"
        }
      ],
      "payable": false,
      "stateMutability": "view",
      "type": "function"
    },
    {
      "constant": true,
      "inputs": [
        {
          "name": "_houseId",
          "type": "uint256"
        }
      ],
      "name": "getOfferIds",
      "outputs": [
        {
          "name": "",
          "type": "uint256[]"
        }
      ],
      "payable": false,
      "stateMutability": "view",
      "type": "function"
    },
    {
      "constant": true,
      "inputs": [
        {
          "name": "_offerId",
          "type": "uint256"
        }
      ],
      "name": "getOffer",
      "outputs": [
        {
          "name": "",
          "type": "uint256"
        },
        {
          "name": "",
          "type": "uint256"
        },
        {
          "name": "",
          "type": "uint256"
        },
        {
          "name": "",
          "type": "uint256"
        },
        {
          "name": "",
          "type": "address"
        },
        {
          "name": "",
          "type": "address"
        },
        {
          "name": "",
          "type": "uint8"
        }
      ],
      "payable": false,
      "stateMutability": "view",
      "type": "function"
    },
    {
      "constant": true,
      "inputs": [],
      "name": "getMyAcceptedOffersId",
      "outputs": [
        {
          "name": "",
          "type": "uint256[]"
        }
      ],
      "payable": false,
      "stateMutability": "view",
      "type": "function"
    },
    {
      "constant": true,
      "inputs": [],
      "name": "getOffersIAcceptedId",
      "outputs": [
        {
          "name": "",
          "type": "uint256[]"
        }
      ],
      "payable": false,
      "stateMutability": "view",
      "type": "function"
    },
    {
      "constant": true,
      "inputs": [],
      "name": "getMyOffersId",
      "outputs": [
        {
          "name": "",
          "type": "uint256[]"
        }
      ],
      "payable": false,
      "stateMutability": "view",
      "type": "function"
    },
    {
      "constant": true,
      "inputs": [],
      "name": "getMyHousesId",
      "outputs": [
        {
          "name": "",
          "type": "uint256[]"
        }
      ],
      "payable": false,
      "stateMutability": "view",
      "type": "function"
    },
    {
      "constant": true,
      "inputs": [],
      "name": "getReadyToCloseId",
      "outputs": [
        {
          "name": "",
          "type": "uint256[]"
        }
      ],
      "payable": false,
      "stateMutability": "view",
      "type": "function"
    },
    {
      "constant": true,
      "inputs": [],
      "name": "getOffersIdsOnMyHouses",
      "outputs": [
        {
          "name": "",
          "type": "uint256[]"
        }
      ],
      "payable": false,
      "stateMutability": "view",
      "type": "function"
    }
  ],
  "bytecode": "0x608060405260008054600160a860020a0319163317905561295e806100256000396000f30060806040526004361061013d5763ffffffff7c01000000000000000000000000000000000000000000000000000000006000350416630193a5ee81146101425780630ee7ef3d146101a757806334d99a8d146101bc5780633f4ba83a146101d65780634579268a146101eb5780634ef5f96c1461027557806351aaf4041461028a5780635c975abb1461029f5780635e6267d8146102c8578063715018a6146102e05780637a734178146102f55780637becf3e71461030d5780637fe7a5e51461036857806381257bd51461037d5780638456cb59146103985780638a72ea6a146103ad5780638da5cb5b1461044c5780639e4ffa7f1461047d578063aeda852f14610492578063c12decd3146105a8578063d284ac48146105bd578063e210a72d146105d5578063e635cdc2146105e6578063f2fde38b146105f1575b600080fd5b34801561014e57600080fd5b50610157610612565b60408051602080825283518183015283519192839290830191858101910280838360005b8381101561019357818101518382015260200161017b565b505050509050019250505060405180910390f35b3480156101b357600080fd5b50610157610724565b3480156101c857600080fd5b506101d46004356107eb565b005b3480156101e257600080fd5b506101d46109df565b3480156101f757600080fd5b50610203600435610a55565b6040518088815260200187815260200186815260200185815260200184600160a060020a0316600160a060020a0316815260200183600160a060020a0316600160a060020a0316815260200182600581111561025b57fe5b60ff16815260200197505050505050505060405180910390f35b34801561028157600080fd5b50610157610b87565b34801561029657600080fd5b50610157610cf2565b3480156102ab57600080fd5b506102b4610e5d565b604080519115158252519081900360200190f35b3480156102d457600080fd5b506101d4600435610e6d565b3480156102ec57600080fd5b506101d4610f6e565b34801561030157600080fd5b50610157600435610fda565b34801561031957600080fd5b506040805160206004803580820135601f81018490048402850184019095528484526101d4943694929360249392840191908190840183828082843750949750509335945061108a9350505050565b34801561037457600080fd5b506101576112de565b34801561038957600080fd5b506101d46004356024356113a5565b3480156103a457600080fd5b506101d46118b8565b3480156103b957600080fd5b506103c5600435611933565b604051808b81526020018a815260200189815260200188815260200187815260200186815260200185815260200184600160a060020a0316600160a060020a0316815260200183600160a060020a0316600160a060020a0316815260200182600581111561042f57fe5b60ff1681526020019a505050505050505050505060405180910390f35b34801561045857600080fd5b506104616119a5565b60408051600160a060020a039092168252519081900360200190f35b34801561048957600080fd5b506101576119b4565b34801561049e57600080fd5b506104aa600435611a64565b60405180806020018e81526020018d81526020018c81526020018b81526020018a815260200189815260200188815260200187815260200186815260200185600160a060020a0316600160a060020a0316815260200184600160a060020a0316600160a060020a0316815260200183600581111561052457fe5b60ff16815260200182810382528f818151815260200191508051906020019080838360005b83811015610561578181015183820152602001610549565b50505050905090810190601f16801561058e5780820380516001836020036101000a031916815260200191505b509e50505050505050505050505050505060405180910390f35b3480156105b457600080fd5b50610157611b78565b3480156105c957600080fd5b506101d4600435611c28565b6101d4600435602435604435611e0c565b6101d4600435612282565b3480156105fd57600080fd5b506101d4600160a060020a0360043516612519565b606080600080600b600033600160a060020a0316600160a060020a0316815260200190815260200160002054604051908082528060200260200182016040528015610667578160200160208202803883390190505b50925060009150600090505b60035481101561071c57600780543391908390811061068e57fe5b6000918252602090912060086009909202010154600160a060020a03161480156106ef5750600060078054839081106106c357fe5b906000526020600020906009020160080160149054906101000a900460ff1660058111156106ed57fe5b145b156107145780838381518110151561070357fe5b602090810290910101526001909101905b600101610673565b509092915050565b606080600080600a600033600160a060020a0316600160a060020a0316815260200190815260200160002054604051908082528060200260200182016040528015610779578160200160208202803883390190505b50925060009150600090505b60025481101561071c5760068054339190839081106107a057fe5b60009182526020909120600b600d909202010154600160a060020a031614156107e3578083838151811015156107d257fe5b602090810290910101526001909101905b600101610785565b60005460a060020a900460ff161561080257600080fd5b600680548290811061081057fe5b90600052602060002090600d020160070154421015151561083057600080fd5b6003600680548390811061084057fe5b90600052602060002090600d0201600b0160149054906101000a900460ff16600581111561086a57fe5b1461087d5761087881612539565b6109dc565b600060068281548110151561088e57fe5b60009182526020909120600b600d9092020101805474ff0000000000000000000000000000000000000000191660a060020a8360058111156108cc57fe5b0217905550600560076006838154811015156108e457fe5b90600052602060002090600d02016003015481548110151561090257fe5b60009182526020909120600860099092020101805474ff0000000000000000000000000000000000000000191660a060020a83600581111561094057fe5b021790555060055461095990600163ffffffff61269616565b600555600680548290811061096a57fe5b60009182526020909120600b600d90920201015460068054600160a060020a03909216916108fc91908490811061099d57fe5b90600052602060002090600d0201600201549081150290604051600060405180830381858888f193505050501580156109da573d6000803e3d6000fd5b505b50565b600054600160a060020a031633146109f657600080fd5b60005460a060020a900460ff161515610a0e57600080fd5b6000805474ff0000000000000000000000000000000000000000191681556040517f7805862f689e2f13df9f062ff482ad3ad112aca9e0847911ed832e158c525b339190a1565b6000806000806000806000600788815481101515610a6f57fe5b906000526020600020906009020160000154600789815481101515610a9057fe5b90600052602060002090600902016002015460078a815481101515610ab157fe5b90600052602060002090600902016003015460078b815481101515610ad257fe5b90600052602060002090600902016001015460078c815481101515610af357fe5b6000918252602090912060076009909202018101548154600160a060020a0390911691908e908110610b2157fe5b600091825260209091206008600990920201015460078054600160a060020a03909216918f908110610b4f57fe5b906000526020600020906009020160080160149054906101000a900460ff169650965096509650965096509650919395979092949650565b6060806000806009600033600160a060020a0316600160a060020a0316815260200190815260200160002054604051908082528060200260200182016040528015610bdc578160200160208202803883390190505b50925060009150600090505b60035481101561071c576007805433919083908110610c0357fe5b6000918252602090912060086009909202010154600160a060020a0316148015610c64575060016007805483908110610c3857fe5b906000526020600020906009020160080160149054906101000a900460ff166005811115610c6257fe5b145b8015610cc5575060026006600783815481101515610c7e57fe5b600091825260209091206009909102015481548110610c9957fe5b90600052602060002090600d0201600b0160149054906101000a900460ff166005811115610cc357fe5b145b15610cea57808383815181101515610cd957fe5b602090810290910101526001909101905b600101610be8565b606080600080600c600033600160a060020a0316600160a060020a0316815260200190815260200160002054604051908082528060200260200182016040528015610d47578160200160208202803883390190505b50925060009150600090505b60035481101561071c576007805433919083908110610d6e57fe5b6000918252602090912060076009909202010154600160a060020a0316148015610dcf575060016007805483908110610da357fe5b906000526020600020906009020160080160149054906101000a900460ff166005811115610dcd57fe5b145b8015610e30575060026006600783815481101515610de957fe5b600091825260209091206009909102015481548110610e0457fe5b90600052602060002090600d0201600b0160149054906101000a900460ff166005811115610e2e57fe5b145b15610e5557808383815181101515610e4457fe5b602090810290910101526001909101905b600101610d53565b60005460a060020a900460ff1681565b6006805482908110610e7b57fe5b60009182526020909120600b600d909202010154600160a060020a0316338114610ea457600080fd5b60005460a060020a900460ff1615610ebb57600080fd5b60016006805484908110610ecb57fe5b90600052602060002090600d0201600b0160149054906101000a900460ff166005811115610ef557fe5b14610eff57600080fd5b6005600683815481101515610f1057fe5b60009182526020909120600b600d9092020101805474ff0000000000000000000000000000000000000000191660a060020a836005811115610f4e57fe5b0217905550600454610f6790600163ffffffff61269616565b6004555050565b600054600160a060020a03163314610f8557600080fd5b60008054604051600160a060020a03909116917ff8df31144d9c2f0f6b59d69b8b98abd5459d07f2742c4df920b25aae33c6482091a26000805473ffffffffffffffffffffffffffffffffffffffff19169055565b6060600682815481101515610feb57fe5b60009182526020909120600b600d909202010154600160a060020a031633811461101457600080fd5b600680548490811061102257fe5b90600052602060002090600d0201600c0180548060200260200160405190810160405280929190818152602001828054801561107d57602002820191906000526020600020905b815481526020019060010190808311611069575b5050505050915050919050565b611092612760565b60005460a060020a900460ff16156110a957600080fd5b604080516101c0810182528481526002546020820152908101839052600060608201819052611388608083015260a0820181905260c0820181905260e082018190526101008201819052610120820181905261014082015233610160820152610180810160018152602001600060405190808252806020026020018201604052801561113f578160200160208202803883390190505b50905260025490915061115990600163ffffffff6126ad16565b60025560045461117090600163ffffffff6126ad16565b600455336000908152600a60209081526040822080546001908101909155600680549182018082559352835180518593600d9093027ff652222313e28459528d920b65115c16c04f3efc82aaedc97be59f3f377c0d3f01926111d69284929101906127ed565b506020820151600182015560408201516002820155606082015160038201556080820151600482015560a082015160058083019190915560c0830151600683015560e0830151600783015561010083015160088301556101208301516009830155610140830151600a83018054600160a060020a0392831673ffffffffffffffffffffffffffffffffffffffff1991821617909155610160850151600b85018054919093169116178082556101808501519274ff0000000000000000000000000000000000000000199091169060a060020a9084908111156112b457fe5b02179055506101a082015180516112d591600c84019160209091019061286b565b50505050505050565b6060806000806008600033600160a060020a0316600160a060020a0316815260200190815260200160002054604051908082528060200260200182016040528015611333578160200160208202803883390190505b50925060009150600090505b60035481101561071c57600780543391908390811061135a57fe5b6000918252602090912060076009909202010154600160a060020a0316141561139d5780838381518110151561138c57fe5b602090810290910101526001909101905b60010161133f565b60068054839081106113b357fe5b60009182526020909120600b600d909202010154600160a060020a03163381146113dc57600080fd5b60005460a060020a900460ff16156113f357600080fd5b6001600680548590811061140357fe5b90600052602060002090600d0201600b0160149054906101000a900460ff16600581111561142d57fe5b1461143757600080fd5b6000600780548490811061144757fe5b906000526020600020906009020160080160149054906101000a900460ff16600581111561147157fe5b1461147b57600080fd5b600780548390811061148957fe5b9060005260206000209060090201600101546006848154811015156114aa57fe5b600091825260209091206002600d90920201015560078054839081106114cc57fe5b9060005260206000209060090201600201546006848154811015156114ed57fe5b90600052602060002090600d020160050181905550600260068481548110151561151357fe5b60009182526020909120600b600d9092020101805474ff0000000000000000000000000000000000000000191660a060020a83600581111561155157fe5b0217905550600780548390811061156457fe5b600091825260209091206007600990920201015460068054600160a060020a03909216918590811061159257fe5b90600052602060002090600d0201600a0160006101000a815481600160a060020a030219169083600160a060020a031602179055506007828154811015156115d657fe5b9060005260206000209060090201600301546006848154811015156115f757fe5b90600052602060002090600d02016003018190555061165f60068481548110151561161e57fe5b90600052602060002090600d02016004015460068581548110151561163f57fe5b90600052602060002090600d02016002015461269690919063ffffffff16565b600680548590811061166d57fe5b90600052602060002090600d0201600601819055506116c86116bb6201518060068681548110151561169b57fe5b90600052602060002090600d0201600501546126ba90919063ffffffff16565b429063ffffffff6126ad16565b60068054859081106116d657fe5b90600052602060002090600d020160070181905550600960006006858154811015156116fe57fe5b60009182526020808320600b600d909302019190910154600160a060020a0316835282019290925260400181208054600101905560068054600c9291908690811061174557fe5b60009182526020808320600a600d909302019190910154600160a060020a0316835282019290925260400181208054600101905560068054600b9291908690811061178c57fe5b60009182526020808320600b600d909302019190910154600160a060020a031683528201929092526040019020805460001901905560068054849081106117cf57fe5b90600052602060002090600d0201600701546007838154811015156117f057fe5b6000918252602090912060056009909202010155600680548490811061181257fe5b90600052602060002090600d02016006015460078381548110151561183357fe5b906000526020600020906009020160060181905550600160078381548110151561185957fe5b60009182526020909120600860099092020101805474ff0000000000000000000000000000000000000000191660a060020a83600581111561189757fe5b02179055506004546118b090600163ffffffff61269616565b600455505050565b600054600160a060020a031633146118cf57600080fd5b60005460a060020a900460ff16156118e657600080fd5b6000805474ff0000000000000000000000000000000000000000191660a060020a1781556040517f6985a02210a168e66602d3235cb6db0e70f92b3ba4d376a33c0f3d9434bff6259190a1565b600780548290811061194157fe5b600091825260209091206009909102018054600182015460028301546003840154600485015460058601546006870154600788015460089098015496985094969395929491939092600160a060020a039182169181169060a060020a900460ff168a565b600054600160a060020a031681565b6060806000806004546040519080825280602002602001820160405280156119e6578160200160208202803883390190505b50925060009150600090505b60025481101561071c5760016006805483908110611a0c57fe5b90600052602060002090600d0201600b0160149054906101000a900460ff166005811115611a3657fe5b1415611a5c57808383815181101515611a4b57fe5b602090810290910101526001909101905b6001016119f2565b6006805482908110611a7257fe5b6000918252602091829020600d919091020180546040805160026001841615610100026000190190931692909204601f810185900485028301850190915280825291935091839190830182828015611b0b5780601f10611ae057610100808354040283529160200191611b0b565b820191906000526020600020905b815481529060010190602001808311611aee57829003601f168201915b50505060018401546002850154600386015460048701546005880154600689015460078a015460088b015460098c0154600a8d0154600b909d01549b9c989b979a509598509396929591949093929091600160a060020a039182169181169060ff60a060020a909104168d565b606080600080600554604051908082528060200260200182016040528015611baa578160200160208202803883390190505b50925060009150600090505b60025481101561071c5760036006805483908110611bd057fe5b90600052602060002090600d0201600b0160149054906101000a900460ff166005811115611bfa57fe5b1415611c2057808383815181101515611c0f57fe5b602090810290910101526001909101905b600101611bb6565b6000600782815481101515611c3957fe5b6000918252602090912060076009909202010154600160a060020a0316338114611c6257600080fd5b60005460a060020a900460ff1615611c7957600080fd5b60006007805485908110611c8957fe5b906000526020600020906009020160080160149054906101000a900460ff166005811115611cb357fe5b14611cbd57600080fd5b6007805484908110611ccb57fe5b9060005260206000209060090201600001549150611d136001600684815481101515611cf357fe5b90600052602060002090600d0201600901546126ad90919063ffffffff16565b6006805484908110611d2157fe5b90600052602060002090600d0201600901819055506003600784815481101515611d4757fe5b60009182526020909120600860099092020101805474ff0000000000000000000000000000000000000000191660a060020a836005811115611d8557fe5b02179055506007805484908110611d9857fe5b6000918252602090912060076009909202018101548154600160a060020a03909116916108fc9186908110611dc957fe5b9060005260206000209060090201600401549081150290604051600060405180830381858888f19350505050158015611e06573d6000803e3d6000fd5b50505050565b611e146128a5565b60005460a060020a900460ff1615611e2b57600080fd5b6006805485908110611e3957fe5b60009182526020909120600d90910201600b0154600160a060020a0316331415611e6257600080fd5b6006805485908110611e7057fe5b90600052602060002090600d02016004015434141515611e8f57600080fd5b60016006805486908110611e9f57fe5b90600052602060002090600d0201600b0160149054906101000a900460ff166005811115611ec957fe5b14611ed357600080fd5b610140604051908101604052808581526020018481526020018381526020016003548152602001600686815481101515611f0957fe5b90600052602060002090600d0201600401548152602001600081526020016000815260200133600160a060020a03168152602001600686815481101515611f4c57fe5b60009182526020808320600d92909202909101600b0154600160a060020a031683529190910152600680549192509085908110611f8557fe5b6000918252602080832060038054600c600d90950290920193909301805460018181018355918652929094209091015554611fc59163ffffffff6126ad16565b60035560068054611ffd9160019187908110611fdd57fe5b90600052602060002090600d0201600801546126ad90919063ffffffff16565b600680548690811061200b57fe5b600091825260208083206008600d909302019190910192909255600780546001810180835591909252835160099092027fa66cc928b5edb82af9bd49922954155ab7b0942694bea4ce44661d9a8736c6888101928355928401517fa66cc928b5edb82af9bd49922954155ab7b0942694bea4ce44661d9a8736c68984015560408401517fa66cc928b5edb82af9bd49922954155ab7b0942694bea4ce44661d9a8736c68a84015560608401517fa66cc928b5edb82af9bd49922954155ab7b0942694bea4ce44661d9a8736c68b84015560808401517fa66cc928b5edb82af9bd49922954155ab7b0942694bea4ce44661d9a8736c68c84015560a08401517fa66cc928b5edb82af9bd49922954155ab7b0942694bea4ce44661d9a8736c68d84015560c08401517fa66cc928b5edb82af9bd49922954155ab7b0942694bea4ce44661d9a8736c68e84015560e08401517fa66cc928b5edb82af9bd49922954155ab7b0942694bea4ce44661d9a8736c68f84018054600160a060020a0392831673ffffffffffffffffffffffffffffffffffffffff19918216179091556101008601517fa66cc928b5edb82af9bd49922954155ab7b0942694bea4ce44661d9a8736c69090950180549590921694169390931780845561012085015191938593929174ff0000000000000000000000000000000000000000191660a060020a83600581111561221657fe5b0217905550503360009081526008602052604081208054600101905560068054600b9450919250908790811061224857fe5b60009182526020808320600b600d909302019190910154600160a060020a0316835282019290925260400190208054600101905550505050565b600680548290811061229057fe5b60009182526020909120600a600d909202010154600160a060020a03163381146122b957600080fd5b60005460a060020a900460ff16156122d057600080fd5b60068054839081106122de57fe5b90600052602060002090600d0201600701544210151561237b57600c600060068481548110151561230b57fe5b60009182526020808320600a600d909302019190910154600160a060020a031683528201929092526040019020805460001901905561234982612539565b60405133903480156108fc02916000818181858888f19350505050158015612375573d6000803e3d6000fd5b506109da565b600680548390811061238957fe5b90600052602060002090600d020160060154341415156123a857600080fd5b600260068054849081106123b857fe5b90600052602060002090600d0201600b0160149054906101000a900460ff1660058111156123e257fe5b146123ec57600080fd5b600c60006006848154811015156123ff57fe5b60009182526020808320600a600d909302019190910154600160a060020a031683528201929092526040019020805460001901905560068054600391908490811061244657fe5b60009182526020909120600b600d9092020101805474ff0000000000000000000000000000000000000000191660a060020a83600581111561248457fe5b021790555060055461249d90600163ffffffff6126ad16565b60055560068054600291600791859081106124b457fe5b90600052602060002090600d0201600301548154811015156124d257fe5b60009182526020909120600860099092020101805474ff0000000000000000000000000000000000000000191660a060020a83600581111561251057fe5b02179055505050565b600054600160a060020a0316331461253057600080fd5b6109dc816126e3565b60005460a060020a900460ff161561255057600080fd5b600460068281548110151561256157fe5b60009182526020909120600b600d9092020101805474ff0000000000000000000000000000000000000000191660a060020a83600581111561259f57fe5b0217905550600460076006838154811015156125b757fe5b90600052602060002090600d0201600301548154811015156125d557fe5b60009182526020909120600860099092020101805474ff0000000000000000000000000000000000000000191660a060020a83600581111561261357fe5b0217905550600680548290811061262657fe5b60009182526020909120600b600d90920201015460068054600160a060020a03909216916108fc91908490811061265957fe5b90600052602060002090600d0201600401549081150290604051600060405180830381858888f193505050501580156109da573d6000803e3d6000fd5b6000828211156126a257fe5b508082035b92915050565b818101828110156126a757fe5b60008215156126cb575060006126a7565b508181028183828115156126db57fe5b04146126a757fe5b600160a060020a03811615156126f857600080fd5b60008054604051600160a060020a03808516939216917f8be0079c531659141344cd1fd0a4f28419497f9722a3daafe3b4186f6b6457e091a36000805473ffffffffffffffffffffffffffffffffffffffff1916600160a060020a0392909216919091179055565b6101c060405190810160405280606081526020016000815260200160008152602001600081526020016000815260200160008152602001600081526020016000815260200160008152602001600081526020016000600160a060020a031681526020016000600160a060020a03168152602001600060058111156127e057fe5b8152602001606081525090565b828054600181600116156101000203166002900490600052602060002090601f016020900481019282601f1061282e57805160ff191683800117855561285b565b8280016001018555821561285b579182015b8281111561285b578251825591602001919060010190612840565b50612867929150612915565b5090565b82805482825590600052602060002090810192821561285b579160200282018281111561285b578251825591602001919060010190612840565b61014060405190810160405280600081526020016000815260200160008152602001600081526020016000815260200160008152602001600081526020016000600160a060020a031681526020016000600160a060020a031681526020016000600581111561291057fe5b905290565b61292f91905b80821115612867576000815560010161291b565b905600a165627a7a72305820fc1ad3a2cc55ce2fbc64dcad2e9d1e666f70351a67923187a1e5d09a76fa21260029",
  "source": "pragma solidity ^0.4.24;\n\n/* @dev Import openZepplin libraries\n*/\nimport 'openzeppelin-solidity/contracts/lifecycle/Pausable.sol';\nimport 'openzeppelin-solidity/contracts/math/SafeMath.sol';\n\n\n\n/* @title House Sale Contract.\n  * @dev Allows users to list houses for sale, users to put in offers on\n    listed houses, sellers to accept offers, buyers to submit funds and the\n    transfer of funds once the deal has been closed.\n    */\n\ncontract HouseSale is Pausable {\n\n    using SafeMath for uint;\n\n    address seller;\n    uint houseId;\n    uint offerNum;\n    uint housesForSale;\n    uint readyToClose;\n\n\n    //Create a struct of a house\n    struct Home {\n        string homeAddress;\n        uint id;\n        uint salePrice;\n        uint offerId;\n        uint depositFee;\n        uint daysUntilClosing;\n        uint remainingFunds;\n        uint closingDate;\n        uint numberOfOffers;\n        uint numberOfPulledOffers;\n        address buyer; //Not set until the offer is accepted\n        address seller;\n        State state;\n        uint[] submittedOfferIds;\n\n    }\n    //Create a struct of an offer made on a house\n    struct Offer {\n        uint houseId;\n        uint offerPrice;\n        uint daysUntilClosingOffer;\n        uint id;\n        uint depositFee;\n        uint closingDate;\n        uint remainingFunds;\n        address buyer;\n        address seller;\n        OfferState offerState;\n\n    }\n\n    //Create a array of all of the houses for sale\n    Home[] public houses;\n\n    //Create a array of all of the offers made on a house\n    Offer[] public offers;\n\n    //Mappings to keep track of the number of offers, accepted offers or houses\n    //a user has\n    mapping (address => uint) offersMade;\n    mapping (address => uint) offersIAccepted;\n    mapping (address => uint) housesByUser;\n    mapping (address => uint) sentOffers;\n    mapping (address => uint) offerRequiresFunding;\n\n\n\n\n    //Create enums that tracks the state of the transactions\n    enum State {Sold, ForSale, OfferAccepted, ReadyToClose, FailedToClose, Removed}\n    enum Funds {DepositMade, FundsRequired, AllFundsSubmitted}\n    enum OfferState {Pending, Accepted, ReadyToClose, Pulled, FailedToClose, Complete}\n\n    /* @dev Modifier that verifies the msg.sender is the buyer\n      * @param _buyer Address of the buyer.\n      */\n    modifier verifyBuyer (address _buyer) {\n        require (msg.sender == _buyer);\n        _;\n\n    }\n\n    /* @dev Modifier that verifies the msg.sender is the seller\n      * @param _seller Address of the seller.\n      */\n    modifier verifySeller (address _seller) {\n        require (msg.sender == _seller);\n        _;\n\n    }\n\n    /* @dev Add a house for sale by filling in the house struct then push the\n      newHome struct into the houses array\n      * @param _address House address\n      * @param _price Price the seller wants to sell the house for\n      */\n    function addHouseForSale(string _address, uint _price) public whenNotPaused(){\n        Home memory newHome = Home({\n            homeAddress: _address,\n            id: houseId,\n            salePrice: _price,\n            offerId: 0,\n            depositFee: 5000 wei,\n            daysUntilClosing: 0,\n            remainingFunds: 0,\n            closingDate: 0,\n            numberOfOffers: 0,\n            numberOfPulledOffers: 0,\n            state: State.ForSale,\n            seller: msg.sender,\n            buyer: 0,\n            submittedOfferIds: new uint[](0)\n\n        });\n        houseId = houseId.add(1);\n        housesForSale = housesForSale.add(1);\n        housesByUser[msg.sender]++;\n        houses.push(newHome);\n\n    }\n\n    /* @dev Changes the state of a house for sale to Removed if called by the\n    seller. Can only happen before an offer is accepted.\n      * @param _houseId Id of the house for sale\n      */\n    function takeDownHouse(uint _houseId) public verifySeller(houses[_houseId].seller) whenNotPaused(){\n        require(houses[_houseId].state == State.ForSale);\n        houses[_houseId].state = State.Removed;\n        housesForSale = housesForSale.sub(1);\n\n    }\n\n\n    /* @dev Makes an offer on a house. Fill in the Offer struct then push the\n      newOffer struct into the offers array\n      * @param _houseId ID of the house for sale\n      * @param _offer Amount the potential buyer offers for the house\n      * @param _daysUntilClosing Amount of days, once the offer is accepted\n      until closing\n      */\n    function makeOffer(uint _houseId, uint _offer, uint _daysUntilClosing) public payable whenNotPaused(){\n        require(msg.sender != houses[_houseId].seller);\n        require(msg.value == houses[_houseId].depositFee);\n        require(houses[_houseId].state == State.ForSale);\n        Offer memory newOffer = Offer({\n            houseId: _houseId,\n            id: offerNum,\n            depositFee: houses[_houseId].depositFee,\n            offerPrice: _offer,\n            daysUntilClosingOffer: _daysUntilClosing,\n            offerState: OfferState.Pending,\n            seller: houses[_houseId].seller,\n            buyer: msg.sender,\n            closingDate: 0,\n            remainingFunds: 0\n        });\n\n        houses[_houseId].submittedOfferIds.push(offerNum);\n        offerNum = offerNum.add(1);\n        houses[_houseId].numberOfOffers = houses[_houseId].numberOfOffers.add(1);\n\n        offers.push(newOffer);\n        offersMade[msg.sender]++;\n        sentOffers[houses[_houseId].seller]++;\n\n\n    }\n\n\n    /* @dev Buyer who submitted an offer pulls their offer and gets their\n    deposit transferred back to them if the offerState is still pending.\n    Changes the offerState to pulled.\n      * @param _offerId Id of the offer\n      */\n    function pullOffer(uint _offerId) public verifyBuyer(offers[_offerId].buyer) whenNotPaused(){\n        require(offers[_offerId].offerState == OfferState.Pending);\n        uint _houseId = offers[_offerId].houseId;\n        houses[_houseId].numberOfPulledOffers = houses[_houseId].numberOfPulledOffers.add(1);\n        offers[_offerId].offerState = OfferState.Pulled;\n        offers[_offerId].buyer.transfer(offers[_offerId].depositFee);\n\n    }\n\n    /* @dev Seller accepts an offer made on a house. Require the house to be\n    for sale and the offerState to be pending.\n      * @param _houseId Id of the houe for sale\n      * @param _offerId Id of the offer the seller wants to accept\n      */\n    function acceptOffer(uint _houseId, uint _offerId) public verifySeller(houses[_houseId].seller) whenNotPaused(){\n        require(houses[_houseId].state == State.ForSale);\n        //require(offers[_offerId].buyer != 0x0000000000000000000000000000000000000000); //Stops seller from accepting if offer has been pulled\n        require(offers[_offerId].offerState == OfferState.Pending);\n        houses[_houseId].salePrice = offers[_offerId].offerPrice;\n        houses[_houseId].daysUntilClosing = offers[_offerId].daysUntilClosingOffer;\n        houses[_houseId].state = State.OfferAccepted;\n        houses[_houseId].buyer = offers[_offerId].buyer;\n        houses[_houseId].offerId = offers[_offerId].id;\n        houses[_houseId].remainingFunds = houses[_houseId].salePrice.sub(houses[_houseId].depositFee);\n        //houses[_houseId].closingDate = now + houses[_houseId].daysUntilClosing * 1 seconds;\n        houses[_houseId].closingDate = now.add(houses[_houseId].daysUntilClosing.mul(86400 seconds));\n        //acceptedOffers[houses[_houseId].buyer]++;\n        offersIAccepted[houses[_houseId].seller]++;\n        offerRequiresFunding[houses[_houseId].buyer]++;\n        sentOffers[houses[_houseId].seller]--;\n        offers[_offerId].closingDate = houses[_houseId].closingDate;\n        offers[_offerId].remainingFunds = houses[_houseId].remainingFunds;\n        offers[_offerId].offerState = OfferState.Accepted;\n        housesForSale = housesForSale.sub(1);\n\n    }\n\n    /* @dev Buyer submits remaining funds after an offer has been accepted,\n    before the closing date. If past closing date then fail. Only the buyer Can\n    submit remaining funds\n      * @param _houseId Id of the house\n      * @value remaining funds in ether\n      */\n    function submitRemainingFunds(uint _houseId) public payable verifyBuyer(houses[_houseId].buyer) whenNotPaused(){\n        if (now >= houses[_houseId].closingDate) {\n            offerRequiresFunding[houses[_houseId].buyer]--;\n            transferDepositToSeller(_houseId);\n            msg.sender.transfer(msg.value);\n        } else {\n            require(msg.value == houses[_houseId].remainingFunds);\n            require(houses[_houseId].state == State.OfferAccepted);\n            offerRequiresFunding[houses[_houseId].buyer]--;\n            houses[_houseId].state = State.ReadyToClose;\n            readyToClose = readyToClose.add(1);\n            offers[houses[_houseId].offerId].offerState = OfferState.ReadyToClose;\n\n        }\n\n    }\n\n\n    /* @dev Private function that transfers the deposit to the seller if the\n    buyer has not submitted all remaining funds to the contract\n      * @param _houseId Id of the house\n      */\n    function transferDepositToSeller(uint _houseId) private whenNotPaused(){\n        houses[_houseId].state = State.FailedToClose;\n        offers[houses[_houseId].offerId].offerState = OfferState.FailedToClose;\n        houses[_houseId].seller.transfer(houses[_houseId].depositFee);\n    }\n\n    /* @dev Closes the deal if past the closing date. If all funds have been\n    submitted then the funds will be transfered to the seller. If not only the\n    deposit will be sent to the seller.\n      * @param _houseId Id of the house\n      */\n    function closeDeal(uint _houseId) public whenNotPaused(){\n        require(now >= houses[_houseId].closingDate);\n        if (houses[_houseId].state != State.ReadyToClose) {\n            transferDepositToSeller(_houseId);\n\n        } else {\n            houses[_houseId].state = State.Sold;\n            offers[houses[_houseId].offerId].offerState = OfferState.Complete;\n            readyToClose = readyToClose.sub(1);\n            houses[_houseId].seller.transfer(houses[_houseId].salePrice);\n\n        }\n\n    }\n\n\n\n    /*The following functions are view functions used to get information\n    for the web application*/\n\n\n    /* @dev Gets a list of houses that are for sale\n      * @return uint[] Array of houses that are for sale\n      */\n    function getHousesForSale() external view returns(uint[]) {\n        uint[] memory result = new uint[](housesForSale);\n\n        uint counter = 0;\n        for (uint i = 0; i < houseId; i++) {\n            //Checks to see if house has not been taken down\n            if (houses[i].state == State.ForSale) {\n                result[counter] = i;\n                counter++;\n            }\n        }\n        return result;\n    }\n\n    /* @dev Gets all offer Ids on a house.\n      * @param _houseId Id of the house\n      * @return uint[] array of offers on the house\n      */\n    function getOfferIds(uint _houseId) external view verifySeller(houses[_houseId].seller) returns(uint[]) {\n        return houses[_houseId].submittedOfferIds;\n    }\n\n     /* @dev Gets the offer infromation from the offerId\n       * @param _offerId Id of the offer\n       * @return houseId The Id of the house\n       * @return daysUntilClosingOffer The days until the offer can be closed\n       * @return id Id f the offer\n       * @return depositFee Fee required to make the offer\n       * @return buyer Address of the buyer\n       * @return seller Address of the seller\n       * @return offerState State of the offer\n       */\n    function getOffer(uint _offerId) external view returns(uint, uint, uint, uint, address, address, OfferState) {\n        return (\n            offers[_offerId].houseId,\n            offers[_offerId].daysUntilClosingOffer,\n            offers[_offerId].id,\n            offers[_offerId].offerPrice,\n            offers[_offerId].buyer,\n            offers[_offerId].seller,\n            offers[_offerId].offerState\n        );\n\n\n    }\n\n\n    /* @dev Gets a list of the msg.senders accepted offers by Id after\n    an offer has been accepted.\n      * @return uint[] Array of accepted offers\n      */\n    function getMyAcceptedOffersId() external view returns(uint[]) {\n        uint[] memory result = new uint[](offerRequiresFunding[msg.sender]);\n\n        uint counter = 0;\n        for (uint i = 0; i < offerNum; i++) {\n            //Checks to see if house has not been taken down\n            if (\n              offers[i].buyer == msg.sender\n              && offers[i].offerState == OfferState.Accepted\n              && houses[offers[i].houseId].state == State.OfferAccepted\n\n            ) {\n                result[counter] = i;\n                counter++;\n            }\n        }\n        return result;\n    }\n\n    /* @dev Gets a list of the msg.senders offers by Id\n    that they accepted\n      * @return uint[] Array of offers the seller has accepted\n      */\n    function getOffersIAcceptedId() external view returns(uint[]) {\n        uint[] memory result = new uint[](offersIAccepted[msg.sender]);\n\n        uint counter = 0;\n        for (uint i = 0; i < offerNum; i++) {\n            //Checks to see if house has not been taken down\n            if (\n              offers[i].seller == msg.sender\n              && offers[i].offerState == OfferState.Accepted\n              && houses[offers[i].houseId].state == State.OfferAccepted\n\n            ) {\n                result[counter] = i;\n                counter++;\n            }\n        }\n        return result;\n    }\n\n    /* @dev Gets a list of the msg.senders offers by Id\n      * @return uint[] Array of offers by the msg.sender\n      */\n    function getMyOffersId() external view returns(uint[]) {\n        uint[] memory result = new uint[](offersMade[msg.sender]);\n\n        uint counter = 0;\n        for (uint i = 0; i < offerNum; i++) {\n            //Checks to see if house has not been taken down\n            if (offers[i].buyer == msg.sender) {\n                result[counter] = i;\n                counter++;\n            }\n        }\n        return result;\n    }\n\n    /* @dev Gets a list of the msg.senders houses for sale by Id\n      * @return uint[] Array of house Ids that are owned by the seller\n      */\n    function getMyHousesId() external view returns(uint[]) {\n        uint[] memory result = new uint[](housesByUser[msg.sender]);\n\n        uint counter = 0;\n        for (uint i = 0; i < houseId; i++) {\n            //Checks to see if house has not been taken down\n            if (houses[i].seller == msg.sender) {\n                result[counter] = i;\n                counter++;\n            }\n        }\n        return result;\n    }\n\n    /* @dev Gets a list of the msg.senders houses that are ready to close\n      * @return uint[] Array of house Ids that have state ready to close\n      */\n    function getReadyToCloseId() external view returns(uint[]) {\n        uint[] memory result = new uint[](readyToClose);\n\n        uint counter = 0;\n        for (uint i = 0; i < houseId; i++) {\n            //Checks to see if house has not been taken down\n            if (houses[i].state == State.ReadyToClose) {\n                result[counter] = i;\n                counter++;\n            }\n        }\n        return result;\n    }\n    /* @dev Gets a list of pending offers on the msg.senders houses\n      * @return uint[] Array of pending offers\n      */\n    function getOffersIdsOnMyHouses() external view returns(uint[]) {\n        uint[] memory result = new uint[](sentOffers[msg.sender]);\n\n        uint counter = 0;\n        for (uint i = 0; i < offerNum; i++) {\n            //Checks to see if house has not been taken down\n            if (\n              offers[i].seller == msg.sender\n              && offers[i].offerState == OfferState.Pending\n            ) {\n                result[counter] = i;\n                counter++;\n            }\n        }\n        return result;\n\n    }\n\n\n\n}\n",
  "sourcePath": "/Users/courtneypowerstoneman/Documents/Luke2/ConsensysDeveloperProgram/Final/HouseSale/contracts/HouseSale.sol",
  "compiler": {
    "name": "solc",
    "version": "0.4.24+commit.e67f0147.Emscripten.clang"
  },
  "schemaVersion": "2.0.1",
  "updatedAt": "2018-08-21T23:14:38.582Z"
}