{
  "contractName": "HouseSale",
  "abi": [
    {
      "constant": true,
      "inputs": [],
      "name": "housesForSale",
      "outputs": [
        {
          "name": "",
          "type": "uint256"
        }
      ],
      "payable": false,
      "stateMutability": "view",
      "type": "function"
    },
    {
      "constant": false,
      "inputs": [],
      "name": "renounceOwnership",
      "outputs": [],
      "payable": false,
      "stateMutability": "nonpayable",
      "type": "function"
    },
    {
      "constant": true,
      "inputs": [
        {
          "name": "",
          "type": "uint256"
        }
      ],
      "name": "offers",
      "outputs": [
        {
          "name": "houseId",
          "type": "uint256"
        },
        {
          "name": "offerPrice",
          "type": "uint256"
        },
        {
          "name": "daysUntilClosingOffer",
          "type": "uint256"
        },
        {
          "name": "id",
          "type": "uint256"
        },
        {
          "name": "depositFee",
          "type": "uint256"
        },
        {
          "name": "closingDate",
          "type": "uint256"
        },
        {
          "name": "remainingFunds",
          "type": "uint256"
        },
        {
          "name": "buyer",
          "type": "address"
        },
        {
          "name": "seller",
          "type": "address"
        },
        {
          "name": "offerState",
          "type": "uint8"
        }
      ],
      "payable": false,
      "stateMutability": "view",
      "type": "function"
    },
    {
      "constant": true,
      "inputs": [],
      "name": "owner",
      "outputs": [
        {
          "name": "",
          "type": "address"
        }
      ],
      "payable": false,
      "stateMutability": "view",
      "type": "function"
    },
    {
      "constant": true,
      "inputs": [
        {
          "name": "",
          "type": "uint256"
        }
      ],
      "name": "houses",
      "outputs": [
        {
          "name": "homeAddress",
          "type": "string"
        },
        {
          "name": "id",
          "type": "uint256"
        },
        {
          "name": "salePrice",
          "type": "uint256"
        },
        {
          "name": "offerId",
          "type": "uint256"
        },
        {
          "name": "depositFee",
          "type": "uint256"
        },
        {
          "name": "daysUntilClosing",
          "type": "uint256"
        },
        {
          "name": "remainingFunds",
          "type": "uint256"
        },
        {
          "name": "closingDate",
          "type": "uint256"
        },
        {
          "name": "numberOfOffers",
          "type": "uint256"
        },
        {
          "name": "numberOfPulledOffers",
          "type": "uint256"
        },
        {
          "name": "buyer",
          "type": "address"
        },
        {
          "name": "seller",
          "type": "address"
        },
        {
          "name": "state",
          "type": "uint8"
        }
      ],
      "payable": false,
      "stateMutability": "view",
      "type": "function"
    },
    {
      "constant": false,
      "inputs": [
        {
          "name": "_newOwner",
          "type": "address"
        }
      ],
      "name": "transferOwnership",
      "outputs": [],
      "payable": false,
      "stateMutability": "nonpayable",
      "type": "function"
    },
    {
      "anonymous": false,
      "inputs": [
        {
          "indexed": true,
          "name": "previousOwner",
          "type": "address"
        }
      ],
      "name": "OwnershipRenounced",
      "type": "event"
    },
    {
      "anonymous": false,
      "inputs": [
        {
          "indexed": true,
          "name": "previousOwner",
          "type": "address"
        },
        {
          "indexed": true,
          "name": "newOwner",
          "type": "address"
        }
      ],
      "name": "OwnershipTransferred",
      "type": "event"
    },
    {
      "constant": false,
      "inputs": [
        {
          "name": "_address",
          "type": "string"
        },
        {
          "name": "_price",
          "type": "uint256"
        }
      ],
      "name": "addHouseForSale",
      "outputs": [],
      "payable": false,
      "stateMutability": "nonpayable",
      "type": "function"
    },
    {
      "constant": false,
      "inputs": [
        {
          "name": "_houseId",
          "type": "uint256"
        }
      ],
      "name": "takeDownHouse",
      "outputs": [],
      "payable": false,
      "stateMutability": "nonpayable",
      "type": "function"
    },
    {
      "constant": false,
      "inputs": [
        {
          "name": "_houseId",
          "type": "uint256"
        },
        {
          "name": "_offer",
          "type": "uint256"
        },
        {
          "name": "_daysUntilClosing",
          "type": "uint256"
        }
      ],
      "name": "makeOffer",
      "outputs": [],
      "payable": true,
      "stateMutability": "payable",
      "type": "function"
    },
    {
      "constant": false,
      "inputs": [
        {
          "name": "_offerId",
          "type": "uint256"
        }
      ],
      "name": "pullOffer",
      "outputs": [],
      "payable": false,
      "stateMutability": "nonpayable",
      "type": "function"
    },
    {
      "constant": false,
      "inputs": [
        {
          "name": "_houseId",
          "type": "uint256"
        },
        {
          "name": "_offerId",
          "type": "uint256"
        }
      ],
      "name": "acceptOffer",
      "outputs": [],
      "payable": false,
      "stateMutability": "nonpayable",
      "type": "function"
    },
    {
      "constant": false,
      "inputs": [
        {
          "name": "_houseId",
          "type": "uint256"
        }
      ],
      "name": "submitRemainingFunds",
      "outputs": [],
      "payable": true,
      "stateMutability": "payable",
      "type": "function"
    },
    {
      "constant": false,
      "inputs": [
        {
          "name": "_houseId",
          "type": "uint256"
        }
      ],
      "name": "closeDeal",
      "outputs": [],
      "payable": false,
      "stateMutability": "nonpayable",
      "type": "function"
    },
    {
      "constant": true,
      "inputs": [],
      "name": "getHousesForSale",
      "outputs": [
        {
          "name": "",
          "type": "uint256[]"
        }
      ],
      "payable": false,
      "stateMutability": "view",
      "type": "function"
    },
    {
      "constant": true,
      "inputs": [
        {
          "name": "_houseId",
          "type": "uint256"
        }
      ],
      "name": "getOfferIds",
      "outputs": [
        {
          "name": "",
          "type": "uint256[]"
        }
      ],
      "payable": false,
      "stateMutability": "view",
      "type": "function"
    },
    {
      "constant": true,
      "inputs": [
        {
          "name": "_offerId",
          "type": "uint256"
        }
      ],
      "name": "getOffer",
      "outputs": [
        {
          "name": "",
          "type": "uint256"
        },
        {
          "name": "",
          "type": "uint256"
        },
        {
          "name": "",
          "type": "uint256"
        },
        {
          "name": "",
          "type": "uint256"
        },
        {
          "name": "",
          "type": "address"
        },
        {
          "name": "",
          "type": "address"
        },
        {
          "name": "",
          "type": "uint8"
        }
      ],
      "payable": false,
      "stateMutability": "view",
      "type": "function"
    },
    {
      "constant": true,
      "inputs": [],
      "name": "getMyAcceptedOffersId",
      "outputs": [
        {
          "name": "",
          "type": "uint256[]"
        }
      ],
      "payable": false,
      "stateMutability": "view",
      "type": "function"
    },
    {
      "constant": true,
      "inputs": [],
      "name": "getMyOffersId",
      "outputs": [
        {
          "name": "",
          "type": "uint256[]"
        }
      ],
      "payable": false,
      "stateMutability": "view",
      "type": "function"
    },
    {
      "constant": true,
      "inputs": [],
      "name": "getMyHousesId",
      "outputs": [
        {
          "name": "",
          "type": "uint256[]"
        }
      ],
      "payable": false,
      "stateMutability": "view",
      "type": "function"
    },
    {
      "constant": true,
      "inputs": [],
      "name": "getOffersIdsOnMyHouses",
      "outputs": [
        {
          "name": "",
          "type": "uint256[]"
        }
      ],
      "payable": false,
      "stateMutability": "view",
      "type": "function"
    }
  ],
  "bytecode": "0x608060405260008054600160a060020a03191633179055612266806100256000396000f3006080604052600436106101115763ffffffff7c01000000000000000000000000000000000000000000000000000000006000350416630193a5ee8114610116578063055f88171461017b5780630ee7ef3d146101a257806334d99a8d146101b75780634579268a146101d157806351aaf4041461025b5780635e6267d814610270578063715018a6146102885780637a7341781461029d5780637becf3e7146102b55780637fe7a5e51461031057806381257bd5146103255780638a72ea6a146103405780638da5cb5b146103df5780639e4ffa7f14610410578063aeda852f14610425578063d284ac481461053b578063e210a72d14610553578063e635cdc214610564578063f2fde38b1461056f575b600080fd5b34801561012257600080fd5b5061012b610590565b60408051602080825283518183015283519192839290830191858101910280838360005b8381101561016757818101518382015260200161014f565b505050509050019250505060405180910390f35b34801561018757600080fd5b5061019061065f565b60408051918252519081900360200190f35b3480156101ae57600080fd5b5061012b610665565b3480156101c357600080fd5b506101cf60043561072c565b005b3480156101dd57600080fd5b506101e960043561082a565b6040518088815260200187815260200186815260200185815260200184600160a060020a0316600160a060020a0316815260200183600160a060020a0316600160a060020a0316815260200182600381111561024157fe5b60ff16815260200197505050505050505060405180910390f35b34801561026757600080fd5b5061012b61095c565b34801561027c57600080fd5b506101cf600435610ac7565b34801561029457600080fd5b506101cf610bc1565b3480156102a957600080fd5b5061012b600435610c2d565b3480156102c157600080fd5b506040805160206004803580820135601f81018490048402850184019095528484526101cf9436949293602493928401919081908401838280828437509497505093359450610cdd9350505050565b34801561031c57600080fd5b5061012b610f31565b34801561033157600080fd5b506101cf600435602435610ff8565b34801561034c57600080fd5b50610358600435611472565b604051808b81526020018a815260200189815260200188815260200187815260200186815260200185815260200184600160a060020a0316600160a060020a0316815260200183600160a060020a0316600160a060020a031681526020018260038111156103c257fe5b60ff1681526020019a505050505050505050505060405180910390f35b3480156103eb57600080fd5b506103f46114f5565b60408051600160a060020a039092168252519081900360200190f35b34801561041c57600080fd5b5061012b611504565b34801561043157600080fd5b5061043d6004356115b2565b60405180806020018e81526020018d81526020018c81526020018b81526020018a815260200189815260200188815260200187815260200186815260200185600160a060020a0316600160a060020a0316815260200184600160a060020a0316600160a060020a031681526020018360058111156104b757fe5b60ff16815260200182810382528f818151815260200191508051906020019080838360005b838110156104f45781810151838201526020016104dc565b50505050905090810190601f1680156105215780820380516001836020036101000a031916815260200191505b509e50505050505050505050505050505060405180910390f35b34801561054757600080fd5b506101cf6004356116d7565b6101cf6004356024356044356118b7565b6101cf600435611d27565b34801561057b57600080fd5b506101cf600160a060020a0360043516611e9b565b606080600080600a600033600160a060020a0316600160a060020a03168152602001908152602001600020546040519080825280602002602001820160405280156105e5578160200160208202803883390190505b50925060009150600090505b60035481101561065757600680543391908390811061060c57fe5b6000918252602090912060086009909202010154600160a060020a0316141561064f5780838381518110151561063e57fe5b602090810290910101526001909101905b6001016105f1565b509092915050565b60045481565b6060806000806009600033600160a060020a0316600160a060020a03168152602001908152602001600020546040519080825280602002602001820160405280156106ba578160200160208202803883390190505b50925060009150600090505b6002548110156106575760058054339190839081106106e157fe5b60009182526020909120600b600d909202010154600160a060020a031614156107245780838381518110151561071357fe5b602090810290910101526001909101905b6001016106c6565b600580548290811061073a57fe5b90600052602060002090600d020160070154421015151561075a57600080fd5b6003600580548390811061076a57fe5b90600052602060002090600d0201600b0160149054906101000a900460ff16600581111561079457fe5b146107a7576107a281611ebb565b610827565b60058054829081106107b557fe5b60009182526020909120600b600d90920201015460058054600160a060020a03909216916108fc9190849081106107e857fe5b90600052602060002090600d0201600201549081150290604051600060405180830381858888f19350505050158015610825573d6000803e3d6000fd5b505b50565b600080600080600080600060068881548110151561084457fe5b90600052602060002090600902016000015460068981548110151561086557fe5b90600052602060002090600902016002015460068a81548110151561088657fe5b90600052602060002090600902016003015460068b8154811015156108a757fe5b90600052602060002090600902016001015460068c8154811015156108c857fe5b600091825260209091206007600990920201015460068054600160a060020a03909216918e9081106108f657fe5b600091825260209091206008600990920201015460068054600160a060020a03909216918f90811061092457fe5b906000526020600020906009020160080160149054906101000a900460ff169650965096509650965096509650919395979092949650565b6060806000806008600033600160a060020a0316600160a060020a03168152602001908152602001600020546040519080825280602002602001820160405280156109b1578160200160208202803883390190505b50925060009150600090505b6003548110156106575760068054339190839081106109d857fe5b6000918252602090912060076009909202010154600160a060020a0316148015610a39575060016006805483908110610a0d57fe5b906000526020600020906009020160080160149054906101000a900460ff166003811115610a3757fe5b145b8015610a9a575060026005600683815481101515610a5357fe5b600091825260209091206009909102015481548110610a6e57fe5b90600052602060002090600d0201600b0160149054906101000a900460ff166005811115610a9857fe5b145b15610abf57808383815181101515610aae57fe5b602090810290910101526001909101905b6001016109bd565b6005805482908110610ad557fe5b60009182526020909120600b600d909202010154600160a060020a0316338114610afe57600080fd5b60016005805484908110610b0e57fe5b90600052602060002090600d0201600b0160149054906101000a900460ff166005811115610b3857fe5b14610b4257600080fd5b60058083815481101515610b5257fe5b60009182526020909120600b600d9092020101805474ff0000000000000000000000000000000000000000191674010000000000000000000000000000000000000000836005811115610ba157fe5b0217905550600454610bba90600163ffffffff611f9e16565b6004555050565b600054600160a060020a03163314610bd857600080fd5b60008054604051600160a060020a03909116917ff8df31144d9c2f0f6b59d69b8b98abd5459d07f2742c4df920b25aae33c6482091a26000805473ffffffffffffffffffffffffffffffffffffffff19169055565b6060600582815481101515610c3e57fe5b60009182526020909120600b600d909202010154600160a060020a0316338114610c6757600080fd5b6005805484908110610c7557fe5b90600052602060002090600d0201600c01805480602002602001604051908101604052809291908181526020018280548015610cd057602002820191906000526020600020905b815481526020019060010190808311610cbc575b5050505050915050919050565b610ce5612068565b604080516101c0810182528481526002546020820152908101839052600060608201819052671bc16d674ec80000608083015260a0820181905260c0820181905260e0820181905261010082018190526101208201819052610140820152336101608201526101808101600181526020016000604051908082528060200260200182016040528015610d81578160200160208202803883390190505b509052600254909150610d9b90600163ffffffff611fb516565b600255600454610db290600163ffffffff611fb516565b600455336000908152600960209081526040822080546001908101909155600580549182018082559352835180518593600d9093027f036b6384b5eca791c62761152d0c79bb0604c104a5fb6f4eb0703f3154bb3db00192610e189284929101906120f5565b506020820151600182015560408201516002820155606082015160038201556080820151600482015560a082015160058083019190915560c0830151600683015560e0830151600783015561010083015160088301556101208301516009830155610140830151600a83018054600160a060020a0392831673ffffffffffffffffffffffffffffffffffffffff1991821617909155610160850151600b85018054919093169116178082556101808501519274ff0000000000000000000000000000000000000000199091169074010000000000000000000000000000000000000000908490811115610f0757fe5b02179055506101a08201518051610f2891600c840191602090910190612173565b50505050505050565b6060806000806007600033600160a060020a0316600160a060020a0316815260200190815260200160002054604051908082528060200260200182016040528015610f86578160200160208202803883390190505b50925060009150600090505b600354811015610657576006805433919083908110610fad57fe5b6000918252602090912060076009909202010154600160a060020a03161415610ff057808383815181101515610fdf57fe5b602090810290910101526001909101905b600101610f92565b600580548390811061100657fe5b60009182526020909120600b600d909202010154600160a060020a031633811461102f57600080fd5b6001600580548590811061103f57fe5b90600052602060002090600d0201600b0160149054906101000a900460ff16600581111561106957fe5b1461107357600080fd5b6000600680548490811061108357fe5b906000526020600020906009020160080160149054906101000a900460ff1660038111156110ad57fe5b146110b757600080fd5b60068054839081106110c557fe5b9060005260206000209060090201600101546005848154811015156110e657fe5b600091825260209091206002600d909202010155600680548390811061110857fe5b90600052602060002090600902016002015460058481548110151561112957fe5b90600052602060002090600d020160050181905550600260058481548110151561114f57fe5b60009182526020909120600b600d9092020101805474ff000000000000000000000000000000000000000019167401000000000000000000000000000000000000000083600581111561119e57fe5b021790555060068054839081106111b157fe5b600091825260209091206007600990920201015460058054600160a060020a0390921691859081106111df57fe5b90600052602060002090600d0201600a0160006101000a815481600160a060020a030219169083600160a060020a0316021790555060068281548110151561122357fe5b90600052602060002090600902016003015460058481548110151561124457fe5b90600052602060002090600d0201600301819055506112ac60058481548110151561126b57fe5b90600052602060002090600d02016004015460058581548110151561128c57fe5b90600052602060002090600d020160020154611f9e90919063ffffffff16565b60058054859081106112ba57fe5b90600052602060002090600d020160060181905550611315611308620151806005868154811015156112e857fe5b90600052602060002090600d020160050154611fc290919063ffffffff16565b429063ffffffff611fb516565b600580548590811061132357fe5b90600052602060002090600d0201600701819055506008600060058581548110151561134b57fe5b60009182526020808320600a600d909302019190910154600160a060020a03168352820192909252604001902080546001019055600580548490811061138d57fe5b90600052602060002090600d0201600701546006838154811015156113ae57fe5b9060005260206000209060090201600501819055506005838154811015156113d257fe5b90600052602060002090600d0201600601546006838154811015156113f357fe5b906000526020600020906009020160060181905550600160068381548110151561141957fe5b60009182526020909120600860099092020101805474ff000000000000000000000000000000000000000019167401000000000000000000000000000000000000000083600381111561146857fe5b0217905550505050565b600680548290811061148057fe5b600091825260209091206009909102018054600182015460028301546003840154600485015460058601546006870154600788015460089098015496985094969395929491939092600160a060020a039182169181169074010000000000000000000000000000000000000000900460ff168a565b600054600160a060020a031681565b606080600080600454604051908082528060200260200182016040528015611536578160200160208202803883390190505b50925060009150600090505b6002548110156106575760058080548390811061155b57fe5b90600052602060002090600d0201600b0160149054906101000a900460ff16600581111561158557fe5b146115aa5780838381518110151561159957fe5b602090810290910101526001909101905b600101611542565b60058054829081106115c057fe5b6000918252602091829020600d919091020180546040805160026001841615610100026000190190931692909204601f8101859004850283018501909152808252919350918391908301828280156116595780601f1061162e57610100808354040283529160200191611659565b820191906000526020600020905b81548152906001019060200180831161163c57829003601f168201915b50505060018401546002850154600386015460048701546005880154600689015460078a015460088b015460098c0154600a8d0154600b909d01549b9c989b979a509598509396929591949093929091600160a060020a039182169181169060ff74010000000000000000000000000000000000000000909104168d565b60006006828154811015156116e857fe5b6000918252602090912060076009909202010154600160a060020a031633811461171157600080fd5b6000600680548590811061172157fe5b906000526020600020906009020160080160149054906101000a900460ff16600381111561174b57fe5b1461175557600080fd5b600680548490811061176357fe5b90600052602060002090600902016000015491506117ab600160058481548110151561178b57fe5b90600052602060002090600d020160090154611fb590919063ffffffff16565b60058054849081106117b957fe5b90600052602060002090600d02016009018190555060036006848154811015156117df57fe5b60009182526020909120600860099092020101805474ff000000000000000000000000000000000000000019167401000000000000000000000000000000000000000083600381111561182e57fe5b0217905550600680548490811061184157fe5b600091825260209091206007600990920201015460068054600160a060020a03909216916108fc91908690811061187457fe5b9060005260206000209060090201600401549081150290604051600060405180830381858888f193505050501580156118b1573d6000803e3d6000fd5b50505050565b6118bf6121ad565b60058054859081106118cd57fe5b60009182526020909120600d90910201600b0154600160a060020a03163314156118f657600080fd5b600580548590811061190457fe5b90600052602060002090600d0201600401543414151561192357600080fd5b6001600580548690811061193357fe5b90600052602060002090600d0201600b0160149054906101000a900460ff16600581111561195d57fe5b1461196757600080fd5b61014060405190810160405280858152602001848152602001838152602001600354815260200160058681548110151561199d57fe5b90600052602060002090600d0201600401548152602001600081526020016000815260200133600160a060020a031681526020016005868154811015156119e057fe5b60009182526020808320600d92909202909101600b0154600160a060020a031683529190910152600580549192509085908110611a1957fe5b6000918252602080832060038054600c600d90950290920193909301805460018181018355918652929094209091015554611a599163ffffffff611fb516565b60035560058054611a919160019187908110611a7157fe5b90600052602060002090600d020160080154611fb590919063ffffffff16565b6005805486908110611a9f57fe5b600091825260208083206008600d909302019190910192909255600680546001810180835591909252835160099092027ff652222313e28459528d920b65115c16c04f3efc82aaedc97be59f3f377c0d3f8101928355928401517ff652222313e28459528d920b65115c16c04f3efc82aaedc97be59f3f377c0d4084015560408401517ff652222313e28459528d920b65115c16c04f3efc82aaedc97be59f3f377c0d4184015560608401517ff652222313e28459528d920b65115c16c04f3efc82aaedc97be59f3f377c0d4284015560808401517ff652222313e28459528d920b65115c16c04f3efc82aaedc97be59f3f377c0d4384015560a08401517ff652222313e28459528d920b65115c16c04f3efc82aaedc97be59f3f377c0d4484015560c08401517ff652222313e28459528d920b65115c16c04f3efc82aaedc97be59f3f377c0d4584015560e08401517ff652222313e28459528d920b65115c16c04f3efc82aaedc97be59f3f377c0d4684018054600160a060020a0392831673ffffffffffffffffffffffffffffffffffffffff19918216179091556101008601517ff652222313e28459528d920b65115c16c04f3efc82aaedc97be59f3f377c0d4790950180549590921694169390931780845561012085015191938593929174ff0000000000000000000000000000000000000000191674010000000000000000000000000000000000000000836003811115611cbb57fe5b0217905550503360009081526007602052604081208054600101905560058054600a94509192509087908110611ced57fe5b60009182526020808320600b600d909302019190910154600160a060020a0316835282019290925260400190208054600101905550505050565b6005805482908110611d3557fe5b60009182526020909120600a600d909202010154600160a060020a0316338114611d5e57600080fd5b6005805483908110611d6c57fe5b90600052602060002090600d02016007015442101515611dc157611d8f82611ebb565b60405133903480156108fc02916000818181858888f19350505050158015611dbb573d6000803e3d6000fd5b50610825565b6005805483908110611dcf57fe5b90600052602060002090600d02016006015434141515611dee57600080fd5b60026005805484908110611dfe57fe5b90600052602060002090600d0201600b0160149054906101000a900460ff166005811115611e2857fe5b14611e3257600080fd5b6003600583815481101515611e4357fe5b60009182526020909120600b600d9092020101805474ff0000000000000000000000000000000000000000191674010000000000000000000000000000000000000000836005811115611e9257fe5b02179055505050565b600054600160a060020a03163314611eb257600080fd5b61082781611feb565b6004600582815481101515611ecc57fe5b60009182526020909120600b600d9092020101805474ff0000000000000000000000000000000000000000191674010000000000000000000000000000000000000000836005811115611f1b57fe5b02179055506005805482908110611f2e57fe5b60009182526020909120600b600d90920201015460058054600160a060020a03909216916108fc919084908110611f6157fe5b90600052602060002090600d0201600401549081150290604051600060405180830381858888f19350505050158015610825573d6000803e3d6000fd5b600082821115611faa57fe5b508082035b92915050565b81810182811015611faf57fe5b6000821515611fd357506000611faf565b50818102818382811515611fe357fe5b0414611faf57fe5b600160a060020a038116151561200057600080fd5b60008054604051600160a060020a03808516939216917f8be0079c531659141344cd1fd0a4f28419497f9722a3daafe3b4186f6b6457e091a36000805473ffffffffffffffffffffffffffffffffffffffff1916600160a060020a0392909216919091179055565b6101c060405190810160405280606081526020016000815260200160008152602001600081526020016000815260200160008152602001600081526020016000815260200160008152602001600081526020016000600160a060020a031681526020016000600160a060020a03168152602001600060058111156120e857fe5b8152602001606081525090565b828054600181600116156101000203166002900490600052602060002090601f016020900481019282601f1061213657805160ff1916838001178555612163565b82800160010185558215612163579182015b82811115612163578251825591602001919060010190612148565b5061216f92915061221d565b5090565b8280548282559060005260206000209081019282156121635791602002820182811115612163578251825591602001919060010190612148565b61014060405190810160405280600081526020016000815260200160008152602001600081526020016000815260200160008152602001600081526020016000600160a060020a031681526020016000600160a060020a031681526020016000600381111561221857fe5b905290565b61223791905b8082111561216f5760008155600101612223565b905600a165627a7a7230582085e36449916f1c67549d1caf9e5244cf04915df4ae16417c3a3037dcdb9d2b440029",
  "source": "pragma solidity ^0.4.24;\n\n/* @dev Import openZepplin libraries\n*/\nimport 'openzeppelin-solidity/contracts/ownership/Ownable.sol';\nimport 'openzeppelin-solidity/contracts/math/SafeMath.sol';\n\n\n\n/* @title House Sale Contract.\n  * @dev Allows users to list houses for sale, users to put in offers on\n    listed houses, sellers to accept offers, buyers to submit funds and the\n    transfer of funds once the deal has been closed.\n    */\n\ncontract HouseSale is Ownable {\n\n    using SafeMath for uint;\n\n    address seller;\n    uint houseId;\n    uint offerNum;\n    uint public housesForSale;\n\n\n    //Create a struct of the house that will be mapped by an Id\n    struct Home {\n        string homeAddress;\n        uint id;\n        uint salePrice;\n        uint offerId;\n        uint depositFee;\n        uint daysUntilClosing;\n        uint remainingFunds;\n        uint closingDate;\n        uint numberOfOffers;\n        uint numberOfPulledOffers;\n        address buyer; //Not set until the offer is accepted\n        address seller;\n        State state;\n        uint[] submittedOfferIds;\n\n    }\n    //Create a struct of an offer made on a house\n    struct Offer {\n        uint houseId;\n        uint offerPrice;\n        uint daysUntilClosingOffer;\n        uint id;\n        uint depositFee;\n        uint closingDate;\n        uint remainingFunds;\n        address buyer;\n        address seller;\n        OfferState offerState;\n\n    }\n\n    //Create a mapping of all of the houses for sale\n    Home[] public houses;\n\n    //Create a mapping of all of the offers made on a house\n    Offer[] public offers;\n\n    //Mappings to keep track of the number of offers, accepted offers or houses\n    //a user has\n    mapping (address => uint) offersMade;\n    mapping (address => uint) acceptedOffers;\n    mapping (address => uint) housesByUser;\n    mapping (address => uint) sentOffers;\n\n\n    //Create an enum that tracks the state of the transaction\n    enum State {Sold, ForSale, OfferAccepted, ReadyToClose, FailedToClose, Removed}\n    enum Funds {DepositMade, FundsRequired, AllFundsSubmitted}\n    enum OfferState {Pending, Accepted, Rejected, Pulled}\n\n    /* @dev Modifier that verifies the msg.sender is the buyer\n      * @param _buyer Address of the buyer.\n      */\n    modifier verifyBuyer (address _buyer) {\n        require (msg.sender == _buyer);\n        _;\n\n    }\n\n    /* @dev Modifier that verifies the msg.sender is the seller\n      * @param _seller Address of the seller.\n      */\n    modifier verifySeller (address _seller) {\n        require (msg.sender == _seller);\n        _;\n\n    }\n\n  /*  constructor() public {\n        // Here, set the owner as the person who instantiated the contract\n        //and set your houseId to 0.\n        houseId = 0;\n        housesForSale = 0;\n\n    }*/\n\n    /* @dev Add a house for sale by filling in the house struct then push the\n      newHome struct into the houses array\n      * @param _address House address\n      * @param _price Price the seller wants to sell the house for\n      * @param _depositFee Required fee to submit an offer on the house\n      */\n    function addHouseForSale(string _address, uint _price) public {\n        Home memory newHome = Home({\n            homeAddress: _address,\n            id: houseId,\n            salePrice: _price,\n            offerId: 0,\n            depositFee: 2 ether,\n            daysUntilClosing: 0,\n            remainingFunds: 0,\n            closingDate: 0,\n            numberOfOffers: 0,\n            numberOfPulledOffers: 0,\n            state: State.ForSale,\n            seller: msg.sender,\n            buyer: 0,\n            submittedOfferIds: new uint[](0)\n\n        });\n        houseId = houseId.add(1);\n        housesForSale = housesForSale.add(1);\n        housesByUser[msg.sender]++;\n        houses.push(newHome);\n\n    }\n\n    /* @dev Changes the state of a house for sale to Removed if called by the\n    seller. Can only happen before an offer is accepted.\n      * @param _houseId Id of the house for sale\n      */\n    function takeDownHouse(uint _houseId) public verifySeller(houses[_houseId].seller) {\n        require(houses[_houseId].state == State.ForSale);\n        //delete houses[_houseId]; Cant delete because buyers have to take their deposits still\n        houses[_houseId].state = State.Removed;\n        housesForSale = housesForSale.sub(1);\n\n    }\n\n\n    /* @dev Makes an offer on a house. Fill in the Offer struct then push the\n      newOffer struct into the offers array\n      * @param _houseId ID of the house for sale\n      * @param _offer Amount the potential buyer offers for the house\n      * @param _daysUntilClosing Amount of days, once the offer is accepted\n      until closing\n      */\n    function makeOffer(uint _houseId, uint _offer, uint _daysUntilClosing) public payable {\n        require(msg.sender != houses[_houseId].seller);\n        require(msg.value == houses[_houseId].depositFee);\n        require(houses[_houseId].state == State.ForSale);\n        Offer memory newOffer = Offer({\n            houseId: _houseId,\n            id: offerNum,\n            depositFee: houses[_houseId].depositFee,\n            offerPrice: _offer,\n            daysUntilClosingOffer: _daysUntilClosing,\n            offerState: OfferState.Pending,\n            seller: houses[_houseId].seller,\n            buyer: msg.sender,\n            closingDate: 0,\n            remainingFunds: 0\n        });\n\n        houses[_houseId].submittedOfferIds.push(offerNum);\n        offerNum = offerNum.add(1);\n        houses[_houseId].numberOfOffers = houses[_houseId].numberOfOffers.add(1);\n\n        offers.push(newOffer);\n        offersMade[msg.sender]++;\n        sentOffers[houses[_houseId].seller]++;\n\n\n    }\n\n\n    /* @dev Buyer who submitted an offer pulls their offer and gets their\n    deposit transferred back to them if the offerState is still pending.\n    Changes the offerState to pulled.\n      * @param _offerId Id of the offer\n      */\n    function pullOffer(uint _offerId) public verifyBuyer(offers[_offerId].buyer){\n        require(offers[_offerId].offerState == OfferState.Pending);\n        uint _houseId = offers[_offerId].houseId;\n        houses[_houseId].numberOfPulledOffers = houses[_houseId].numberOfPulledOffers.add(1);\n        offers[_offerId].offerState = OfferState.Pulled;\n        offers[_offerId].buyer.transfer(offers[_offerId].depositFee);\n\n    }\n\n    /* @dev Returns the offer to the potential buyer if another offer has been\n    accepted.\n      * @param w Width of the rectangle.\n      * @param h Height of the rectangle.\n      * @return s The calculated surface.\n      * @return p The calculated perimeter.\n      */\n    /*function returnDeposit(uint _offerId) public verifyBuyer(offers[_offerId].buyer){\n        require(\n          offers[_offerId].offerState != OfferState.Accepted\n          || offers[_offerId].offerState != OfferState.Pulled\n        );\n        offers[_offerId].offerState = OfferState.Pulled;\n        offers[_offerId].buyer.transfer(offers[_offerId].depositFee);\n\n    }*/\n\n    /*Make a function to accept the offer, change the house state to OfferAccepted\n    and the offer state to Accepted. Non accepted offers can the return their\n    deposit from the returnDeposit function ****Test to see if you can\n    accept an offer if the house isnt there*****/\n\n    /* @dev Seller accepts an offer made on a house. Require the house to be\n    for sale and the offerState to be pending.\n      * @param _houseId Id of the houe for sale\n      * @param _offerId Id of the offer the seller wants to accept\n      */\n    function acceptOffer(uint _houseId, uint _offerId) public verifySeller(houses[_houseId].seller) {\n        require(houses[_houseId].state == State.ForSale);\n        //require(offers[_offerId].buyer != 0x0000000000000000000000000000000000000000); //Stops seller from accepting if offer has been pulled\n        require(offers[_offerId].offerState == OfferState.Pending);\n        houses[_houseId].salePrice = offers[_offerId].offerPrice;\n        houses[_houseId].daysUntilClosing = offers[_offerId].daysUntilClosingOffer;\n        houses[_houseId].state = State.OfferAccepted;\n        houses[_houseId].buyer = offers[_offerId].buyer;\n        houses[_houseId].offerId = offers[_offerId].id;\n        houses[_houseId].remainingFunds = houses[_houseId].salePrice.sub(houses[_houseId].depositFee);\n        //houses[_houseId].closingDate = now + houses[_houseId].daysUntilClosing * 1 seconds;\n        houses[_houseId].closingDate = now.add(houses[_houseId].daysUntilClosing.mul(86400 seconds));\n        acceptedOffers[houses[_houseId].buyer]++;\n        offers[_offerId].closingDate = houses[_houseId].closingDate;\n        offers[_offerId].remainingFunds = houses[_houseId].remainingFunds;\n        offers[_offerId].offerState = OfferState.Accepted;\n    }\n\n    /*\n\n\n    /* @dev Buyer submits remaining funds after an offer has been accepted,\n    before the closing date. If past closing date then fail. Only the buyer Can\n    submit remaining funds\n      * @param _houseId Id of the house\n      * @value remaining funds in ether\n      */\n    function submitRemainingFunds(uint _houseId) public payable verifyBuyer(houses[_houseId].buyer){\n        if (now >= houses[_houseId].closingDate) {\n            transferDepositToSeller(_houseId);\n            msg.sender.transfer(msg.value);\n        } else {\n            require(msg.value == houses[_houseId].remainingFunds);\n            require(houses[_houseId].state == State.OfferAccepted);\n            houses[_houseId].state = State.ReadyToClose;\n\n        }\n\n    }\n\n\n    /* @dev Private function that transfers the deposit to the seller if the\n    buyer has not submitted all remaining funds to the contract\n      * @param _houseId Id of the house\n      */\n    function transferDepositToSeller(uint _houseId) private {\n        houses[_houseId].state = State.FailedToClose;\n        houses[_houseId].seller.transfer(houses[_houseId].depositFee);\n    }\n\n    /* @dev Closes the deal if past the closing date. If all funds have been\n    submitted then the funds will be transfered to the seller. If not only the\n    deposit will be sent to the seller.\n      * @param _houseId Id of the house\n      */\n    function closeDeal(uint _houseId) public {\n        require(now >= houses[_houseId].closingDate);\n        if (houses[_houseId].state != State.ReadyToClose) {\n            transferDepositToSeller(_houseId);\n\n        } else {\n            houses[_houseId].seller.transfer(houses[_houseId].salePrice);\n\n        }\n\n    }\n\n\n\n\n\n    /* @dev Gets a list of houses that have not been removed. May want to\n    change this to houses that are for sale by changing the if statement to\n    (houses[i].state == State.Accepted) and subtracting housesForSale by 1 once\n    an offer has been accepted.\n      * @return uint[] Array of houses that have not been removed\n      */\n    function getHousesForSale() external view returns(uint[]) {\n        uint[] memory result = new uint[](housesForSale);\n\n        uint counter = 0;\n        for (uint i = 0; i < houseId; i++) {\n            //Checks to see if house has not been taken down\n            if (houses[i].state != State.Removed) {\n                result[counter] = i;\n                counter++;\n            }\n        }\n        return result;\n    }\n\n    /* @dev Gets all offer Ids on a house.\n      * @param _houseId Id of the house\n      * @return uint[] array of offers on the house\n      */\n    function getOfferIds(uint _houseId) external view verifySeller(houses[_houseId].seller) returns(uint[]) {\n        return houses[_houseId].submittedOfferIds;\n    }\n\n     /* @dev Gets the offer infromation from the offerId\n       * @param _offerId Id of the offer\n       * @return houseId The Id of the house\n       * @return daysUntilClosingOffer The days until the offer can be closed\n       * @return id Id f the offer\n       * @return depositFee Fee required to make the offer\n       * @return buyer Address of the buyer\n       * @return seller Address of the seller\n       * @return offerState State of the offer\n       */\n    function getOffer(uint _offerId) external view returns(uint, uint, uint, uint, address, address, OfferState) {\n        return (\n            offers[_offerId].houseId,\n            offers[_offerId].daysUntilClosingOffer,\n            offers[_offerId].id,\n            offers[_offerId].offerPrice,\n            offers[_offerId].buyer,\n            offers[_offerId].seller,\n            offers[_offerId].offerState\n        );\n\n\n    }\n\n\n    // Function to return all my accepted offers\n    /* @dev Gets a list of the msg.senders accepted offers by Id\n    an offer has been accepted.\n      * @return uint[] Array of house Ids that are owned by the seller\n      */\n    function getMyAcceptedOffersId() external view returns(uint[]) {\n        uint[] memory result = new uint[](acceptedOffers[msg.sender]);\n\n        uint counter = 0;\n        for (uint i = 0; i < offerNum; i++) {\n            //Checks to see if house has not been taken down\n            if (\n              offers[i].buyer == msg.sender\n              && offers[i].offerState == OfferState.Accepted\n              && houses[offers[i].houseId].state == State.OfferAccepted\n\n            ) {\n                result[counter] = i;\n                counter++;\n            }\n        }\n        return result;\n    }\n    //Function to return all my offers\n\n    /* @dev Gets a list of the msg.senders offers by Id\n    an offer has been accepted.\n      * @return uint[] Array of house Ids that are owned by the seller\n      */\n    function getMyOffersId() external view returns(uint[]) {\n        uint[] memory result = new uint[](offersMade[msg.sender]);\n\n        uint counter = 0;\n        for (uint i = 0; i < offerNum; i++) {\n            //Checks to see if house has not been taken down\n            if (offers[i].buyer == msg.sender) {\n                result[counter] = i;\n                counter++;\n            }\n        }\n        return result;\n    }\n    //Fundtion to return all my houses for sale\n\n    /* @dev Gets a list of the msg.senders houses for sale by Id\n    an offer has been accepted.\n      * @return uint[] Array of house Ids that are owned by the seller\n      */\n    function getMyHousesId() external view returns(uint[]) {\n        uint[] memory result = new uint[](housesByUser[msg.sender]);\n\n        uint counter = 0;\n        for (uint i = 0; i < houseId; i++) {\n            //Checks to see if house has not been taken down\n            if (houses[i].seller == msg.sender) {\n                result[counter] = i;\n                counter++;\n            }\n        }\n        return result;\n    }\n\n    function getOffersIdsOnMyHouses() external view returns(uint[]) {\n        uint[] memory result = new uint[](sentOffers[msg.sender]);\n\n        uint counter = 0;\n        for (uint i = 0; i < offerNum; i++) {\n            //Checks to see if house has not been taken down\n            if (offers[i].seller == msg.sender) {\n                result[counter] = i;\n                counter++;\n            }\n        }\n        return result;\n\n    }\n\n    /*make a function to show all offers on a house\n    function getOffers(uint _houseId) external view verifySeller(houses[_houseId].seller) returns(uint[]) {\n        //uint[] memory result = new uint[](houses[_houseId].numberOfOffers.sub(houses[_houseId].numberOfPulledOffers));\n        uint[] memory result = new uint[](houses[_houseId].numberOfOffers);\n\n        uint counter = 0;\n        for (uint i = 0; i < houses[_houseId].numberOfOffers; i++) {\n            //Checks to see if offer has not been taken down\n            if (offers[i].offerState != OfferState.Pulled) {\n                result[counter] = i;\n                counter++;\n            }\n        }\n        return result;\n    } */\n\n\n}\n",
  "sourcePath": "/Users/courtneypowerstoneman/Documents/Luke2/ConsensysDeveloperProgram/Final/HouseSale/contracts/HouseSale.sol",
  "compiler": {
    "name": "solc",
    "version": "0.4.24+commit.e67f0147.Emscripten.clang"
  },
  "schemaVersion": "2.0.1",
  "updatedAt": "2018-08-19T17:04:13.959Z"
}